{
	"Solidity Contracts/simpleopenauction.sol": {
		"SimpleAuction": {
			"abi": [
				{
					"inputs": [
						{
							"internalType": "uint256",
							"name": "biddingTime",
							"type": "uint256"
						},
						{
							"internalType": "address payable",
							"name": "beneficiaryAddress",
							"type": "address"
						}
					],
					"stateMutability": "nonpayable",
					"type": "constructor"
				},
				{
					"inputs": [],
					"name": "AuctionAlreadyEnded",
					"type": "error"
				},
				{
					"inputs": [],
					"name": "AuctionEndAlreadyCalled",
					"type": "error"
				},
				{
					"inputs": [],
					"name": "AuctionNotYetEnded",
					"type": "error"
				},
				{
					"inputs": [
						{
							"internalType": "uint256",
							"name": "highestBid",
							"type": "uint256"
						}
					],
					"name": "BidNotHighEnough",
					"type": "error"
				},
				{
					"anonymous": false,
					"inputs": [
						{
							"indexed": false,
							"internalType": "address",
							"name": "winner",
							"type": "address"
						},
						{
							"indexed": false,
							"internalType": "uint256",
							"name": "amount",
							"type": "uint256"
						}
					],
					"name": "AuctionEnded",
					"type": "event"
				},
				{
					"anonymous": false,
					"inputs": [
						{
							"indexed": false,
							"internalType": "address",
							"name": "bidder",
							"type": "address"
						},
						{
							"indexed": false,
							"internalType": "uint256",
							"name": "amount",
							"type": "uint256"
						}
					],
					"name": "HighestBidIncreased",
					"type": "event"
				},
				{
					"inputs": [],
					"name": "auctionEnd",
					"outputs": [],
					"stateMutability": "nonpayable",
					"type": "function"
				},
				{
					"inputs": [],
					"name": "auctionEndTime",
					"outputs": [
						{
							"internalType": "uint256",
							"name": "",
							"type": "uint256"
						}
					],
					"stateMutability": "view",
					"type": "function"
				},
				{
					"inputs": [],
					"name": "beneficiary",
					"outputs": [
						{
							"internalType": "address payable",
							"name": "",
							"type": "address"
						}
					],
					"stateMutability": "view",
					"type": "function"
				},
				{
					"inputs": [],
					"name": "bid",
					"outputs": [],
					"stateMutability": "payable",
					"type": "function"
				},
				{
					"inputs": [],
					"name": "highestBid",
					"outputs": [
						{
							"internalType": "uint256",
							"name": "",
							"type": "uint256"
						}
					],
					"stateMutability": "view",
					"type": "function"
				},
				{
					"inputs": [],
					"name": "highestBidder",
					"outputs": [
						{
							"internalType": "address",
							"name": "",
							"type": "address"
						}
					],
					"stateMutability": "view",
					"type": "function"
				},
				{
					"inputs": [],
					"name": "withdraw",
					"outputs": [
						{
							"internalType": "bool",
							"name": "",
							"type": "bool"
						}
					],
					"stateMutability": "nonpayable",
					"type": "function"
				}
			],
			"devdoc": {
				"kind": "dev",
				"methods": {},
				"version": 1
			},
			"evm": {
				"assembly": "    /* \"Solidity Contracts/simpleopenauction.sol\":62:5224  contract SimpleAuction {... */\n  mstore(0x40, 0x80)\n    /* \"Solidity Contracts/simpleopenauction.sol\":1515:1714  constructor(... */\n  callvalue\n  dup1\n  iszero\n  tag_1\n  jumpi\n  0x00\n  dup1\n  revert\ntag_1:\n  pop\n  mload(0x40)\n  sub(codesize, bytecodeSize)\n  dup1\n  bytecodeSize\n  dup4\n  codecopy\n  dup2\n  dup2\n  add\n  0x40\n  mstore\n  dup2\n  add\n  swap1\n  tag_2\n  swap2\n  swap1\n  tag_3\n  jump\t// in\ntag_2:\n    /* \"Solidity Contracts/simpleopenauction.sol\":1631:1649  beneficiaryAddress */\n  dup1\n    /* \"Solidity Contracts/simpleopenauction.sol\":1617:1628  beneficiary */\n  0x00\n  dup1\n    /* \"Solidity Contracts/simpleopenauction.sol\":1617:1649  beneficiary = beneficiaryAddress */\n  0x0100\n  exp\n  dup2\n  sload\n  dup2\n  0xffffffffffffffffffffffffffffffffffffffff\n  mul\n  not\n  and\n  swap1\n  dup4\n  0xffffffffffffffffffffffffffffffffffffffff\n  and\n  mul\n  or\n  swap1\n  sstore\n  pop\n    /* \"Solidity Contracts/simpleopenauction.sol\":1695:1706  biddingTime */\n  dup2\n    /* \"Solidity Contracts/simpleopenauction.sol\":1677:1692  block.timestamp */\n  timestamp\n    /* \"Solidity Contracts/simpleopenauction.sol\":1677:1706  block.timestamp + biddingTime */\n  tag_6\n  swap2\n  swap1\n  tag_7\n  jump\t// in\ntag_6:\n    /* \"Solidity Contracts/simpleopenauction.sol\":1660:1674  auctionEndTime */\n  0x01\n    /* \"Solidity Contracts/simpleopenauction.sol\":1660:1706  auctionEndTime = block.timestamp + biddingTime */\n  dup2\n  swap1\n  sstore\n  pop\n    /* \"Solidity Contracts/simpleopenauction.sol\":1515:1714  constructor(... */\n  pop\n  pop\n    /* \"Solidity Contracts/simpleopenauction.sol\":62:5224  contract SimpleAuction {... */\n  jump(tag_8)\n    /* \"#utility.yul\":88:205   */\ntag_10:\n    /* \"#utility.yul\":197:198   */\n  0x00\n    /* \"#utility.yul\":194:195   */\n  dup1\n    /* \"#utility.yul\":187:199   */\n  revert\n    /* \"#utility.yul\":334:411   */\ntag_12:\n    /* \"#utility.yul\":371:378   */\n  0x00\n    /* \"#utility.yul\":400:405   */\n  dup2\n    /* \"#utility.yul\":389:405   */\n  swap1\n  pop\n    /* \"#utility.yul\":334:411   */\n  swap2\n  swap1\n  pop\n  jump\t// out\n    /* \"#utility.yul\":417:539   */\ntag_13:\n    /* \"#utility.yul\":490:514   */\n  tag_26\n    /* \"#utility.yul\":508:513   */\n  dup2\n    /* \"#utility.yul\":490:514   */\n  tag_12\n  jump\t// in\ntag_26:\n    /* \"#utility.yul\":483:488   */\n  dup2\n    /* \"#utility.yul\":480:515   */\n  eq\n    /* \"#utility.yul\":470:533   */\n  tag_27\n  jumpi\n    /* \"#utility.yul\":529:530   */\n  0x00\n    /* \"#utility.yul\":526:527   */\n  dup1\n    /* \"#utility.yul\":519:531   */\n  revert\n    /* \"#utility.yul\":470:533   */\ntag_27:\n    /* \"#utility.yul\":417:539   */\n  pop\n  jump\t// out\n    /* \"#utility.yul\":545:688   */\ntag_14:\n    /* \"#utility.yul\":602:607   */\n  0x00\n    /* \"#utility.yul\":633:639   */\n  dup2\n    /* \"#utility.yul\":627:640   */\n  mload\n    /* \"#utility.yul\":618:640   */\n  swap1\n  pop\n    /* \"#utility.yul\":649:682   */\n  tag_29\n    /* \"#utility.yul\":676:681   */\n  dup2\n    /* \"#utility.yul\":649:682   */\n  tag_13\n  jump\t// in\ntag_29:\n    /* \"#utility.yul\":545:688   */\n  swap3\n  swap2\n  pop\n  pop\n  jump\t// out\n    /* \"#utility.yul\":694:820   */\ntag_15:\n    /* \"#utility.yul\":731:738   */\n  0x00\n    /* \"#utility.yul\":771:813   */\n  0xffffffffffffffffffffffffffffffffffffffff\n    /* \"#utility.yul\":764:769   */\n  dup3\n    /* \"#utility.yul\":760:814   */\n  and\n    /* \"#utility.yul\":749:814   */\n  swap1\n  pop\n    /* \"#utility.yul\":694:820   */\n  swap2\n  swap1\n  pop\n  jump\t// out\n    /* \"#utility.yul\":826:930   */\ntag_16:\n    /* \"#utility.yul\":871:878   */\n  0x00\n    /* \"#utility.yul\":900:924   */\n  tag_32\n    /* \"#utility.yul\":918:923   */\n  dup3\n    /* \"#utility.yul\":900:924   */\n  tag_15\n  jump\t// in\ntag_32:\n    /* \"#utility.yul\":889:924   */\n  swap1\n  pop\n    /* \"#utility.yul\":826:930   */\n  swap2\n  swap1\n  pop\n  jump\t// out\n    /* \"#utility.yul\":936:1074   */\ntag_17:\n    /* \"#utility.yul\":1017:1049   */\n  tag_34\n    /* \"#utility.yul\":1043:1048   */\n  dup2\n    /* \"#utility.yul\":1017:1049   */\n  tag_16\n  jump\t// in\ntag_34:\n    /* \"#utility.yul\":1010:1015   */\n  dup2\n    /* \"#utility.yul\":1007:1050   */\n  eq\n    /* \"#utility.yul\":997:1068   */\n  tag_35\n  jumpi\n    /* \"#utility.yul\":1064:1065   */\n  0x00\n    /* \"#utility.yul\":1061:1062   */\n  dup1\n    /* \"#utility.yul\":1054:1066   */\n  revert\n    /* \"#utility.yul\":997:1068   */\ntag_35:\n    /* \"#utility.yul\":936:1074   */\n  pop\n  jump\t// out\n    /* \"#utility.yul\":1080:1239   */\ntag_18:\n    /* \"#utility.yul\":1145:1150   */\n  0x00\n    /* \"#utility.yul\":1176:1182   */\n  dup2\n    /* \"#utility.yul\":1170:1183   */\n  mload\n    /* \"#utility.yul\":1161:1183   */\n  swap1\n  pop\n    /* \"#utility.yul\":1192:1233   */\n  tag_37\n    /* \"#utility.yul\":1227:1232   */\n  dup2\n    /* \"#utility.yul\":1192:1233   */\n  tag_17\n  jump\t// in\ntag_37:\n    /* \"#utility.yul\":1080:1239   */\n  swap3\n  swap2\n  pop\n  pop\n  jump\t// out\n    /* \"#utility.yul\":1245:1768   */\ntag_3:\n    /* \"#utility.yul\":1332:1338   */\n  0x00\n    /* \"#utility.yul\":1340:1346   */\n  dup1\n    /* \"#utility.yul\":1389:1391   */\n  0x40\n    /* \"#utility.yul\":1377:1386   */\n  dup4\n    /* \"#utility.yul\":1368:1375   */\n  dup6\n    /* \"#utility.yul\":1364:1387   */\n  sub\n    /* \"#utility.yul\":1360:1392   */\n  slt\n    /* \"#utility.yul\":1357:1476   */\n  iszero\n  tag_39\n  jumpi\n    /* \"#utility.yul\":1395:1474   */\n  tag_40\n  tag_10\n  jump\t// in\ntag_40:\n    /* \"#utility.yul\":1357:1476   */\ntag_39:\n    /* \"#utility.yul\":1515:1516   */\n  0x00\n    /* \"#utility.yul\":1540:1604   */\n  tag_41\n    /* \"#utility.yul\":1596:1603   */\n  dup6\n    /* \"#utility.yul\":1587:1593   */\n  dup3\n    /* \"#utility.yul\":1576:1585   */\n  dup7\n    /* \"#utility.yul\":1572:1594   */\n  add\n    /* \"#utility.yul\":1540:1604   */\n  tag_14\n  jump\t// in\ntag_41:\n    /* \"#utility.yul\":1530:1604   */\n  swap3\n  pop\n    /* \"#utility.yul\":1486:1614   */\n  pop\n    /* \"#utility.yul\":1653:1655   */\n  0x20\n    /* \"#utility.yul\":1679:1751   */\n  tag_42\n    /* \"#utility.yul\":1743:1750   */\n  dup6\n    /* \"#utility.yul\":1734:1740   */\n  dup3\n    /* \"#utility.yul\":1723:1732   */\n  dup7\n    /* \"#utility.yul\":1719:1741   */\n  add\n    /* \"#utility.yul\":1679:1751   */\n  tag_18\n  jump\t// in\ntag_42:\n    /* \"#utility.yul\":1669:1751   */\n  swap2\n  pop\n    /* \"#utility.yul\":1624:1761   */\n  pop\n    /* \"#utility.yul\":1245:1768   */\n  swap3\n  pop\n  swap3\n  swap1\n  pop\n  jump\t// out\n    /* \"#utility.yul\":1774:1954   */\ntag_19:\n    /* \"#utility.yul\":1822:1899   */\n  0x4e487b7100000000000000000000000000000000000000000000000000000000\n    /* \"#utility.yul\":1819:1820   */\n  0x00\n    /* \"#utility.yul\":1812:1900   */\n  mstore\n    /* \"#utility.yul\":1919:1923   */\n  0x11\n    /* \"#utility.yul\":1916:1917   */\n  0x04\n    /* \"#utility.yul\":1909:1924   */\n  mstore\n    /* \"#utility.yul\":1943:1947   */\n  0x24\n    /* \"#utility.yul\":1940:1941   */\n  0x00\n    /* \"#utility.yul\":1933:1948   */\n  revert\n    /* \"#utility.yul\":1960:2151   */\ntag_7:\n    /* \"#utility.yul\":2000:2003   */\n  0x00\n    /* \"#utility.yul\":2019:2039   */\n  tag_45\n    /* \"#utility.yul\":2037:2038   */\n  dup3\n    /* \"#utility.yul\":2019:2039   */\n  tag_12\n  jump\t// in\ntag_45:\n    /* \"#utility.yul\":2014:2039   */\n  swap2\n  pop\n    /* \"#utility.yul\":2053:2073   */\n  tag_46\n    /* \"#utility.yul\":2071:2072   */\n  dup4\n    /* \"#utility.yul\":2053:2073   */\n  tag_12\n  jump\t// in\ntag_46:\n    /* \"#utility.yul\":2048:2073   */\n  swap3\n  pop\n    /* \"#utility.yul\":2096:2097   */\n  dup3\n    /* \"#utility.yul\":2093:2094   */\n  dup3\n    /* \"#utility.yul\":2089:2098   */\n  add\n    /* \"#utility.yul\":2082:2098   */\n  swap1\n  pop\n    /* \"#utility.yul\":2117:2120   */\n  dup1\n    /* \"#utility.yul\":2114:2115   */\n  dup3\n    /* \"#utility.yul\":2111:2121   */\n  gt\n    /* \"#utility.yul\":2108:2144   */\n  iszero\n  tag_47\n  jumpi\n    /* \"#utility.yul\":2124:2142   */\n  tag_48\n  tag_19\n  jump\t// in\ntag_48:\n    /* \"#utility.yul\":2108:2144   */\ntag_47:\n    /* \"#utility.yul\":1960:2151   */\n  swap3\n  swap2\n  pop\n  pop\n  jump\t// out\n    /* \"Solidity Contracts/simpleopenauction.sol\":62:5224  contract SimpleAuction {... */\ntag_8:\n  dataSize(sub_0)\n  dup1\n  dataOffset(sub_0)\n  0x00\n  codecopy\n  0x00\n  return\nstop\n\nsub_0: assembly {\n        /* \"Solidity Contracts/simpleopenauction.sol\":62:5224  contract SimpleAuction {... */\n      mstore(0x40, 0x80)\n      jumpi(tag_1, lt(calldatasize, 0x04))\n      shr(0xe0, calldataload(0x00))\n      dup1\n      0x3ccfd60b\n      gt\n      tag_9\n      jumpi\n      dup1\n      0x3ccfd60b\n      eq\n      tag_5\n      jumpi\n      dup1\n      0x4b449cba\n      eq\n      tag_6\n      jumpi\n      dup1\n      0x91f90157\n      eq\n      tag_7\n      jumpi\n      dup1\n      0xd57bde79\n      eq\n      tag_8\n      jumpi\n      jump(tag_1)\n    tag_9:\n      dup1\n      0x1998aeef\n      eq\n      tag_2\n      jumpi\n      dup1\n      0x2a24f46c\n      eq\n      tag_3\n      jumpi\n      dup1\n      0x38af3eed\n      eq\n      tag_4\n      jumpi\n    tag_1:\n      0x00\n      dup1\n      revert\n        /* \"Solidity Contracts/simpleopenauction.sol\":1888:3141  function bid() external payable {... */\n    tag_2:\n      tag_10\n      tag_11\n      jump\t// in\n    tag_10:\n      stop\n        /* \"Solidity Contracts/simpleopenauction.sol\":4102:5221  function auctionEnd() external {... */\n    tag_3:\n      callvalue\n      dup1\n      iszero\n      tag_12\n      jumpi\n      0x00\n      dup1\n      revert\n    tag_12:\n      pop\n      tag_13\n      tag_14\n      jump\t// in\n    tag_13:\n      stop\n        /* \"Solidity Contracts/simpleopenauction.sol\":240:274  address payable public beneficiary */\n    tag_4:\n      callvalue\n      dup1\n      iszero\n      tag_15\n      jumpi\n      0x00\n      dup1\n      revert\n    tag_15:\n      pop\n      tag_16\n      tag_17\n      jump\t// in\n    tag_16:\n      mload(0x40)\n      tag_18\n      swap2\n      swap1\n      tag_19\n      jump\t// in\n    tag_18:\n      mload(0x40)\n      dup1\n      swap2\n      sub\n      swap1\n      return\n        /* \"Solidity Contracts/simpleopenauction.sol\":3191:4015  function withdraw() external returns (bool) {... */\n    tag_5:\n      callvalue\n      dup1\n      iszero\n      tag_20\n      jumpi\n      0x00\n      dup1\n      revert\n    tag_20:\n      pop\n      tag_21\n      tag_22\n      jump\t// in\n    tag_21:\n      mload(0x40)\n      tag_23\n      swap2\n      swap1\n      tag_24\n      jump\t// in\n    tag_23:\n      mload(0x40)\n      dup1\n      swap2\n      sub\n      swap1\n      return\n        /* \"Solidity Contracts/simpleopenauction.sol\":281:307  uint public auctionEndTime */\n    tag_6:\n      callvalue\n      dup1\n      iszero\n      tag_25\n      jumpi\n      0x00\n      dup1\n      revert\n    tag_25:\n      pop\n      tag_26\n      tag_27\n      jump\t// in\n    tag_26:\n      mload(0x40)\n      tag_28\n      swap2\n      swap1\n      tag_29\n      jump\t// in\n    tag_28:\n      mload(0x40)\n      dup1\n      swap2\n      sub\n      swap1\n      return\n        /* \"Solidity Contracts/simpleopenauction.sol\":354:382  address public highestBidder */\n    tag_7:\n      callvalue\n      dup1\n      iszero\n      tag_30\n      jumpi\n      0x00\n      dup1\n      revert\n    tag_30:\n      pop\n      tag_31\n      tag_32\n      jump\t// in\n    tag_31:\n      mload(0x40)\n      tag_33\n      swap2\n      swap1\n      tag_34\n      jump\t// in\n    tag_33:\n      mload(0x40)\n      dup1\n      swap2\n      sub\n      swap1\n      return\n        /* \"Solidity Contracts/simpleopenauction.sol\":389:411  uint public highestBid */\n    tag_8:\n      callvalue\n      dup1\n      iszero\n      tag_35\n      jumpi\n      0x00\n      dup1\n      revert\n    tag_35:\n      pop\n      tag_36\n      tag_37\n      jump\t// in\n    tag_36:\n      mload(0x40)\n      tag_38\n      swap2\n      swap1\n      tag_29\n      jump\t// in\n    tag_38:\n      mload(0x40)\n      dup1\n      swap2\n      sub\n      swap1\n      return\n        /* \"Solidity Contracts/simpleopenauction.sol\":1888:3141  function bid() external payable {... */\n    tag_11:\n        /* \"Solidity Contracts/simpleopenauction.sol\":2244:2258  auctionEndTime */\n      sload(0x01)\n        /* \"Solidity Contracts/simpleopenauction.sol\":2226:2241  block.timestamp */\n      timestamp\n        /* \"Solidity Contracts/simpleopenauction.sol\":2226:2258  block.timestamp > auctionEndTime */\n      gt\n        /* \"Solidity Contracts/simpleopenauction.sol\":2222:2301  if (block.timestamp > auctionEndTime)... */\n      iszero\n      tag_40\n      jumpi\n        /* \"Solidity Contracts/simpleopenauction.sol\":2280:2301  AuctionAlreadyEnded() */\n      mload(0x40)\n      0xd02e774d00000000000000000000000000000000000000000000000000000000\n      dup2\n      mstore\n      0x04\n      add\n      mload(0x40)\n      dup1\n      swap2\n      sub\n      swap1\n      revert\n        /* \"Solidity Contracts/simpleopenauction.sol\":2222:2301  if (block.timestamp > auctionEndTime)... */\n    tag_40:\n        /* \"Solidity Contracts/simpleopenauction.sol\":2551:2561  highestBid */\n      sload(0x03)\n        /* \"Solidity Contracts/simpleopenauction.sol\":2538:2547  msg.value */\n      callvalue\n        /* \"Solidity Contracts/simpleopenauction.sol\":2538:2561  msg.value <= highestBid */\n      gt\n        /* \"Solidity Contracts/simpleopenauction.sol\":2534:2611  if (msg.value <= highestBid)... */\n      tag_41\n      jumpi\n        /* \"Solidity Contracts/simpleopenauction.sol\":2600:2610  highestBid */\n      sload(0x03)\n        /* \"Solidity Contracts/simpleopenauction.sol\":2583:2611  BidNotHighEnough(highestBid) */\n      mload(0x40)\n      0x4e12c1bb00000000000000000000000000000000000000000000000000000000\n      dup2\n      mstore\n      0x04\n      add\n      tag_42\n      swap2\n      swap1\n      tag_29\n      jump\t// in\n    tag_42:\n      mload(0x40)\n      dup1\n      swap2\n      sub\n      swap1\n      revert\n        /* \"Solidity Contracts/simpleopenauction.sol\":2534:2611  if (msg.value <= highestBid)... */\n    tag_41:\n        /* \"Solidity Contracts/simpleopenauction.sol\":2642:2643  0 */\n      0x00\n        /* \"Solidity Contracts/simpleopenauction.sol\":2628:2638  highestBid */\n      sload(0x03)\n        /* \"Solidity Contracts/simpleopenauction.sol\":2628:2643  highestBid != 0 */\n      eq\n        /* \"Solidity Contracts/simpleopenauction.sol\":2624:3006  if (highestBid != 0) {... */\n      tag_43\n      jumpi\n        /* \"Solidity Contracts/simpleopenauction.sol\":2984:2994  highestBid */\n      sload(0x03)\n        /* \"Solidity Contracts/simpleopenauction.sol\":2951:2965  pendingReturns */\n      0x04\n        /* \"Solidity Contracts/simpleopenauction.sol\":2951:2980  pendingReturns[highestBidder] */\n      0x00\n        /* \"Solidity Contracts/simpleopenauction.sol\":2966:2979  highestBidder */\n      0x02\n      0x00\n      swap1\n      sload\n      swap1\n      0x0100\n      exp\n      swap1\n      div\n      0xffffffffffffffffffffffffffffffffffffffff\n      and\n        /* \"Solidity Contracts/simpleopenauction.sol\":2951:2980  pendingReturns[highestBidder] */\n      0xffffffffffffffffffffffffffffffffffffffff\n      and\n      0xffffffffffffffffffffffffffffffffffffffff\n      and\n      dup2\n      mstore\n      0x20\n      add\n      swap1\n      dup2\n      mstore\n      0x20\n      add\n      0x00\n      keccak256\n      0x00\n        /* \"Solidity Contracts/simpleopenauction.sol\":2951:2994  pendingReturns[highestBidder] += highestBid */\n      dup3\n      dup3\n      sload\n      tag_44\n      swap2\n      swap1\n      tag_45\n      jump\t// in\n    tag_44:\n      swap3\n      pop\n      pop\n      dup2\n      swap1\n      sstore\n      pop\n        /* \"Solidity Contracts/simpleopenauction.sol\":2624:3006  if (highestBid != 0) {... */\n    tag_43:\n        /* \"Solidity Contracts/simpleopenauction.sol\":3032:3042  msg.sender */\n      caller\n        /* \"Solidity Contracts/simpleopenauction.sol\":3016:3029  highestBidder */\n      0x02\n      0x00\n        /* \"Solidity Contracts/simpleopenauction.sol\":3016:3042  highestBidder = msg.sender */\n      0x0100\n      exp\n      dup2\n      sload\n      dup2\n      0xffffffffffffffffffffffffffffffffffffffff\n      mul\n      not\n      and\n      swap1\n      dup4\n      0xffffffffffffffffffffffffffffffffffffffff\n      and\n      mul\n      or\n      swap1\n      sstore\n      pop\n        /* \"Solidity Contracts/simpleopenauction.sol\":3066:3075  msg.value */\n      callvalue\n        /* \"Solidity Contracts/simpleopenauction.sol\":3053:3063  highestBid */\n      0x03\n        /* \"Solidity Contracts/simpleopenauction.sol\":3053:3075  highestBid = msg.value */\n      dup2\n      swap1\n      sstore\n      pop\n        /* \"Solidity Contracts/simpleopenauction.sol\":3091:3133  HighestBidIncreased(msg.sender, msg.value) */\n      0xf4757a49b326036464bec6fe419a4ae38c8a02ce3e68bf0809674f6aab8ad300\n        /* \"Solidity Contracts/simpleopenauction.sol\":3111:3121  msg.sender */\n      caller\n        /* \"Solidity Contracts/simpleopenauction.sol\":3123:3132  msg.value */\n      callvalue\n        /* \"Solidity Contracts/simpleopenauction.sol\":3091:3133  HighestBidIncreased(msg.sender, msg.value) */\n      mload(0x40)\n      tag_46\n      swap3\n      swap2\n      swap1\n      tag_47\n      jump\t// in\n    tag_46:\n      mload(0x40)\n      dup1\n      swap2\n      sub\n      swap1\n      log1\n        /* \"Solidity Contracts/simpleopenauction.sol\":1888:3141  function bid() external payable {... */\n      jump\t// out\n        /* \"Solidity Contracts/simpleopenauction.sol\":4102:5221  function auctionEnd() external {... */\n    tag_14:\n        /* \"Solidity Contracts/simpleopenauction.sol\":4915:4929  auctionEndTime */\n      sload(0x01)\n        /* \"Solidity Contracts/simpleopenauction.sol\":4897:4912  block.timestamp */\n      timestamp\n        /* \"Solidity Contracts/simpleopenauction.sol\":4897:4929  block.timestamp < auctionEndTime */\n      lt\n        /* \"Solidity Contracts/simpleopenauction.sol\":4893:4971  if (block.timestamp < auctionEndTime)... */\n      iszero\n      tag_49\n      jumpi\n        /* \"Solidity Contracts/simpleopenauction.sol\":4951:4971  AuctionNotYetEnded() */\n      mload(0x40)\n      0x44cee29000000000000000000000000000000000000000000000000000000000\n      dup2\n      mstore\n      0x04\n      add\n      mload(0x40)\n      dup1\n      swap2\n      sub\n      swap1\n      revert\n        /* \"Solidity Contracts/simpleopenauction.sol\":4893:4971  if (block.timestamp < auctionEndTime)... */\n    tag_49:\n        /* \"Solidity Contracts/simpleopenauction.sol\":4986:4991  ended */\n      0x05\n      0x00\n      swap1\n      sload\n      swap1\n      0x0100\n      exp\n      swap1\n      div\n      0xff\n      and\n        /* \"Solidity Contracts/simpleopenauction.sol\":4982:5038  if (ended)... */\n      iszero\n      tag_50\n      jumpi\n        /* \"Solidity Contracts/simpleopenauction.sol\":5013:5038  AuctionEndAlreadyCalled() */\n      mload(0x40)\n      0x61cfdcf800000000000000000000000000000000000000000000000000000000\n      dup2\n      mstore\n      0x04\n      add\n      mload(0x40)\n      dup1\n      swap2\n      sub\n      swap1\n      revert\n        /* \"Solidity Contracts/simpleopenauction.sol\":4982:5038  if (ended)... */\n    tag_50:\n        /* \"Solidity Contracts/simpleopenauction.sol\":5082:5086  true */\n      0x01\n        /* \"Solidity Contracts/simpleopenauction.sol\":5074:5079  ended */\n      0x05\n      0x00\n        /* \"Solidity Contracts/simpleopenauction.sol\":5074:5086  ended = true */\n      0x0100\n      exp\n      dup2\n      sload\n      dup2\n      0xff\n      mul\n      not\n      and\n      swap1\n      dup4\n      iszero\n      iszero\n      mul\n      or\n      swap1\n      sstore\n      pop\n        /* \"Solidity Contracts/simpleopenauction.sol\":5102:5141  AuctionEnded(highestBidder, highestBid) */\n      0xdaec4582d5d9595688c8c98545fdd1c696d41c6aeaeb636737e84ed2f5c00eda\n        /* \"Solidity Contracts/simpleopenauction.sol\":5115:5128  highestBidder */\n      0x02\n      0x00\n      swap1\n      sload\n      swap1\n      0x0100\n      exp\n      swap1\n      div\n      0xffffffffffffffffffffffffffffffffffffffff\n      and\n        /* \"Solidity Contracts/simpleopenauction.sol\":5130:5140  highestBid */\n      sload(0x03)\n        /* \"Solidity Contracts/simpleopenauction.sol\":5102:5141  AuctionEnded(highestBidder, highestBid) */\n      mload(0x40)\n      tag_51\n      swap3\n      swap2\n      swap1\n      tag_47\n      jump\t// in\n    tag_51:\n      mload(0x40)\n      dup1\n      swap2\n      sub\n      swap1\n      log1\n        /* \"Solidity Contracts/simpleopenauction.sol\":5181:5192  beneficiary */\n      0x00\n      dup1\n      sload\n      swap1\n      0x0100\n      exp\n      swap1\n      div\n      0xffffffffffffffffffffffffffffffffffffffff\n      and\n        /* \"Solidity Contracts/simpleopenauction.sol\":5181:5201  beneficiary.transfer */\n      0xffffffffffffffffffffffffffffffffffffffff\n      and\n        /* \"Solidity Contracts/simpleopenauction.sol\":5181:5213  beneficiary.transfer(highestBid) */\n      0x08fc\n        /* \"Solidity Contracts/simpleopenauction.sol\":5202:5212  highestBid */\n      sload(0x03)\n        /* \"Solidity Contracts/simpleopenauction.sol\":5181:5213  beneficiary.transfer(highestBid) */\n      swap1\n      dup2\n      iszero\n      mul\n      swap1\n      mload(0x40)\n      0x00\n      mload(0x40)\n      dup1\n      dup4\n      sub\n      dup2\n      dup6\n      dup9\n      dup9\n      call\n      swap4\n      pop\n      pop\n      pop\n      pop\n      iszero\n      dup1\n      iszero\n      tag_53\n      jumpi\n      returndatasize\n      0x00\n      dup1\n      returndatacopy\n      revert(0x00, returndatasize)\n    tag_53:\n      pop\n        /* \"Solidity Contracts/simpleopenauction.sol\":4102:5221  function auctionEnd() external {... */\n      jump\t// out\n        /* \"Solidity Contracts/simpleopenauction.sol\":240:274  address payable public beneficiary */\n    tag_17:\n      0x00\n      dup1\n      sload\n      swap1\n      0x0100\n      exp\n      swap1\n      div\n      0xffffffffffffffffffffffffffffffffffffffff\n      and\n      dup2\n      jump\t// out\n        /* \"Solidity Contracts/simpleopenauction.sol\":3191:4015  function withdraw() external returns (bool) {... */\n    tag_22:\n        /* \"Solidity Contracts/simpleopenauction.sol\":3229:3233  bool */\n      0x00\n        /* \"Solidity Contracts/simpleopenauction.sol\":3246:3257  uint amount */\n      dup1\n        /* \"Solidity Contracts/simpleopenauction.sol\":3260:3274  pendingReturns */\n      0x04\n        /* \"Solidity Contracts/simpleopenauction.sol\":3260:3286  pendingReturns[msg.sender] */\n      0x00\n        /* \"Solidity Contracts/simpleopenauction.sol\":3275:3285  msg.sender */\n      caller\n        /* \"Solidity Contracts/simpleopenauction.sol\":3260:3286  pendingReturns[msg.sender] */\n      0xffffffffffffffffffffffffffffffffffffffff\n      and\n      0xffffffffffffffffffffffffffffffffffffffff\n      and\n      dup2\n      mstore\n      0x20\n      add\n      swap1\n      dup2\n      mstore\n      0x20\n      add\n      0x00\n      keccak256\n      sload\n        /* \"Solidity Contracts/simpleopenauction.sol\":3246:3286  uint amount = pendingReturns[msg.sender] */\n      swap1\n      pop\n        /* \"Solidity Contracts/simpleopenauction.sol\":3310:3311  0 */\n      0x00\n        /* \"Solidity Contracts/simpleopenauction.sol\":3301:3307  amount */\n      dup2\n        /* \"Solidity Contracts/simpleopenauction.sol\":3301:3311  amount > 0 */\n      gt\n        /* \"Solidity Contracts/simpleopenauction.sol\":3297:3986  if (amount > 0) {... */\n      iszero\n      tag_55\n      jumpi\n        /* \"Solidity Contracts/simpleopenauction.sol\":3545:3546  0 */\n      0x00\n        /* \"Solidity Contracts/simpleopenauction.sol\":3516:3530  pendingReturns */\n      0x04\n        /* \"Solidity Contracts/simpleopenauction.sol\":3516:3542  pendingReturns[msg.sender] */\n      0x00\n        /* \"Solidity Contracts/simpleopenauction.sol\":3531:3541  msg.sender */\n      caller\n        /* \"Solidity Contracts/simpleopenauction.sol\":3516:3542  pendingReturns[msg.sender] */\n      0xffffffffffffffffffffffffffffffffffffffff\n      and\n      0xffffffffffffffffffffffffffffffffffffffff\n      and\n      dup2\n      mstore\n      0x20\n      add\n      swap1\n      dup2\n      mstore\n      0x20\n      add\n      0x00\n      keccak256\n        /* \"Solidity Contracts/simpleopenauction.sol\":3516:3546  pendingReturns[msg.sender] = 0 */\n      dup2\n      swap1\n      sstore\n      pop\n        /* \"Solidity Contracts/simpleopenauction.sol\":3772:3782  msg.sender */\n      caller\n        /* \"Solidity Contracts/simpleopenauction.sol\":3764:3788  payable(msg.sender).send */\n      0xffffffffffffffffffffffffffffffffffffffff\n      and\n        /* \"Solidity Contracts/simpleopenauction.sol\":3764:3796  payable(msg.sender).send(amount) */\n      0x08fc\n        /* \"Solidity Contracts/simpleopenauction.sol\":3789:3795  amount */\n      dup3\n        /* \"Solidity Contracts/simpleopenauction.sol\":3764:3796  payable(msg.sender).send(amount) */\n      swap1\n      dup2\n      iszero\n      mul\n      swap1\n      mload(0x40)\n      0x00\n      mload(0x40)\n      dup1\n      dup4\n      sub\n      dup2\n      dup6\n      dup9\n      dup9\n      call\n      swap4\n      pop\n      pop\n      pop\n      pop\n        /* \"Solidity Contracts/simpleopenauction.sol\":3759:3975  if (!payable(msg.sender).send(amount)) {... */\n      tag_57\n      jumpi\n        /* \"Solidity Contracts/simpleopenauction.sol\":3922:3928  amount */\n      dup1\n        /* \"Solidity Contracts/simpleopenauction.sol\":3893:3907  pendingReturns */\n      0x04\n        /* \"Solidity Contracts/simpleopenauction.sol\":3893:3919  pendingReturns[msg.sender] */\n      0x00\n        /* \"Solidity Contracts/simpleopenauction.sol\":3908:3918  msg.sender */\n      caller\n        /* \"Solidity Contracts/simpleopenauction.sol\":3893:3919  pendingReturns[msg.sender] */\n      0xffffffffffffffffffffffffffffffffffffffff\n      and\n      0xffffffffffffffffffffffffffffffffffffffff\n      and\n      dup2\n      mstore\n      0x20\n      add\n      swap1\n      dup2\n      mstore\n      0x20\n      add\n      0x00\n      keccak256\n        /* \"Solidity Contracts/simpleopenauction.sol\":3893:3928  pendingReturns[msg.sender] = amount */\n      dup2\n      swap1\n      sstore\n      pop\n        /* \"Solidity Contracts/simpleopenauction.sol\":3954:3959  false */\n      0x00\n        /* \"Solidity Contracts/simpleopenauction.sol\":3947:3959  return false */\n      swap2\n      pop\n      pop\n      jump(tag_54)\n        /* \"Solidity Contracts/simpleopenauction.sol\":3759:3975  if (!payable(msg.sender).send(amount)) {... */\n    tag_57:\n        /* \"Solidity Contracts/simpleopenauction.sol\":3297:3986  if (amount > 0) {... */\n    tag_55:\n        /* \"Solidity Contracts/simpleopenauction.sol\":4003:4007  true */\n      0x01\n        /* \"Solidity Contracts/simpleopenauction.sol\":3996:4007  return true */\n      swap2\n      pop\n      pop\n        /* \"Solidity Contracts/simpleopenauction.sol\":3191:4015  function withdraw() external returns (bool) {... */\n    tag_54:\n      swap1\n      jump\t// out\n        /* \"Solidity Contracts/simpleopenauction.sol\":281:307  uint public auctionEndTime */\n    tag_27:\n      sload(0x01)\n      dup2\n      jump\t// out\n        /* \"Solidity Contracts/simpleopenauction.sol\":354:382  address public highestBidder */\n    tag_32:\n      0x02\n      0x00\n      swap1\n      sload\n      swap1\n      0x0100\n      exp\n      swap1\n      div\n      0xffffffffffffffffffffffffffffffffffffffff\n      and\n      dup2\n      jump\t// out\n        /* \"Solidity Contracts/simpleopenauction.sol\":389:411  uint public highestBid */\n    tag_37:\n      sload(0x03)\n      dup2\n      jump\t// out\n        /* \"#utility.yul\":7:133   */\n    tag_58:\n        /* \"#utility.yul\":44:51   */\n      0x00\n        /* \"#utility.yul\":84:126   */\n      0xffffffffffffffffffffffffffffffffffffffff\n        /* \"#utility.yul\":77:82   */\n      dup3\n        /* \"#utility.yul\":73:127   */\n      and\n        /* \"#utility.yul\":62:127   */\n      swap1\n      pop\n        /* \"#utility.yul\":7:133   */\n      swap2\n      swap1\n      pop\n      jump\t// out\n        /* \"#utility.yul\":139:243   */\n    tag_59:\n        /* \"#utility.yul\":184:191   */\n      0x00\n        /* \"#utility.yul\":213:237   */\n      tag_71\n        /* \"#utility.yul\":231:236   */\n      dup3\n        /* \"#utility.yul\":213:237   */\n      tag_58\n      jump\t// in\n    tag_71:\n        /* \"#utility.yul\":202:237   */\n      swap1\n      pop\n        /* \"#utility.yul\":139:243   */\n      swap2\n      swap1\n      pop\n      jump\t// out\n        /* \"#utility.yul\":249:391   */\n    tag_60:\n        /* \"#utility.yul\":352:384   */\n      tag_73\n        /* \"#utility.yul\":378:383   */\n      dup2\n        /* \"#utility.yul\":352:384   */\n      tag_59\n      jump\t// in\n    tag_73:\n        /* \"#utility.yul\":347:350   */\n      dup3\n        /* \"#utility.yul\":340:385   */\n      mstore\n        /* \"#utility.yul\":249:391   */\n      pop\n      pop\n      jump\t// out\n        /* \"#utility.yul\":397:651   */\n    tag_19:\n        /* \"#utility.yul\":506:510   */\n      0x00\n        /* \"#utility.yul\":544:546   */\n      0x20\n        /* \"#utility.yul\":533:542   */\n      dup3\n        /* \"#utility.yul\":529:547   */\n      add\n        /* \"#utility.yul\":521:547   */\n      swap1\n      pop\n        /* \"#utility.yul\":557:644   */\n      tag_75\n        /* \"#utility.yul\":641:642   */\n      0x00\n        /* \"#utility.yul\":630:639   */\n      dup4\n        /* \"#utility.yul\":626:643   */\n      add\n        /* \"#utility.yul\":617:623   */\n      dup5\n        /* \"#utility.yul\":557:644   */\n      tag_60\n      jump\t// in\n    tag_75:\n        /* \"#utility.yul\":397:651   */\n      swap3\n      swap2\n      pop\n      pop\n      jump\t// out\n        /* \"#utility.yul\":657:747   */\n    tag_61:\n        /* \"#utility.yul\":691:698   */\n      0x00\n        /* \"#utility.yul\":734:739   */\n      dup2\n        /* \"#utility.yul\":727:740   */\n      iszero\n        /* \"#utility.yul\":720:741   */\n      iszero\n        /* \"#utility.yul\":709:741   */\n      swap1\n      pop\n        /* \"#utility.yul\":657:747   */\n      swap2\n      swap1\n      pop\n      jump\t// out\n        /* \"#utility.yul\":753:862   */\n    tag_62:\n        /* \"#utility.yul\":834:855   */\n      tag_78\n        /* \"#utility.yul\":849:854   */\n      dup2\n        /* \"#utility.yul\":834:855   */\n      tag_61\n      jump\t// in\n    tag_78:\n        /* \"#utility.yul\":829:832   */\n      dup3\n        /* \"#utility.yul\":822:856   */\n      mstore\n        /* \"#utility.yul\":753:862   */\n      pop\n      pop\n      jump\t// out\n        /* \"#utility.yul\":868:1078   */\n    tag_24:\n        /* \"#utility.yul\":955:959   */\n      0x00\n        /* \"#utility.yul\":993:995   */\n      0x20\n        /* \"#utility.yul\":982:991   */\n      dup3\n        /* \"#utility.yul\":978:996   */\n      add\n        /* \"#utility.yul\":970:996   */\n      swap1\n      pop\n        /* \"#utility.yul\":1006:1071   */\n      tag_80\n        /* \"#utility.yul\":1068:1069   */\n      0x00\n        /* \"#utility.yul\":1057:1066   */\n      dup4\n        /* \"#utility.yul\":1053:1070   */\n      add\n        /* \"#utility.yul\":1044:1050   */\n      dup5\n        /* \"#utility.yul\":1006:1071   */\n      tag_62\n      jump\t// in\n    tag_80:\n        /* \"#utility.yul\":868:1078   */\n      swap3\n      swap2\n      pop\n      pop\n      jump\t// out\n        /* \"#utility.yul\":1084:1161   */\n    tag_63:\n        /* \"#utility.yul\":1121:1128   */\n      0x00\n        /* \"#utility.yul\":1150:1155   */\n      dup2\n        /* \"#utility.yul\":1139:1155   */\n      swap1\n      pop\n        /* \"#utility.yul\":1084:1161   */\n      swap2\n      swap1\n      pop\n      jump\t// out\n        /* \"#utility.yul\":1167:1285   */\n    tag_64:\n        /* \"#utility.yul\":1254:1278   */\n      tag_83\n        /* \"#utility.yul\":1272:1277   */\n      dup2\n        /* \"#utility.yul\":1254:1278   */\n      tag_63\n      jump\t// in\n    tag_83:\n        /* \"#utility.yul\":1249:1252   */\n      dup3\n        /* \"#utility.yul\":1242:1279   */\n      mstore\n        /* \"#utility.yul\":1167:1285   */\n      pop\n      pop\n      jump\t// out\n        /* \"#utility.yul\":1291:1513   */\n    tag_29:\n        /* \"#utility.yul\":1384:1388   */\n      0x00\n        /* \"#utility.yul\":1422:1424   */\n      0x20\n        /* \"#utility.yul\":1411:1420   */\n      dup3\n        /* \"#utility.yul\":1407:1425   */\n      add\n        /* \"#utility.yul\":1399:1425   */\n      swap1\n      pop\n        /* \"#utility.yul\":1435:1506   */\n      tag_85\n        /* \"#utility.yul\":1503:1504   */\n      0x00\n        /* \"#utility.yul\":1492:1501   */\n      dup4\n        /* \"#utility.yul\":1488:1505   */\n      add\n        /* \"#utility.yul\":1479:1485   */\n      dup5\n        /* \"#utility.yul\":1435:1506   */\n      tag_64\n      jump\t// in\n    tag_85:\n        /* \"#utility.yul\":1291:1513   */\n      swap3\n      swap2\n      pop\n      pop\n      jump\t// out\n        /* \"#utility.yul\":1519:1615   */\n    tag_65:\n        /* \"#utility.yul\":1556:1563   */\n      0x00\n        /* \"#utility.yul\":1585:1609   */\n      tag_87\n        /* \"#utility.yul\":1603:1608   */\n      dup3\n        /* \"#utility.yul\":1585:1609   */\n      tag_58\n      jump\t// in\n    tag_87:\n        /* \"#utility.yul\":1574:1609   */\n      swap1\n      pop\n        /* \"#utility.yul\":1519:1615   */\n      swap2\n      swap1\n      pop\n      jump\t// out\n        /* \"#utility.yul\":1621:1739   */\n    tag_66:\n        /* \"#utility.yul\":1708:1732   */\n      tag_89\n        /* \"#utility.yul\":1726:1731   */\n      dup2\n        /* \"#utility.yul\":1708:1732   */\n      tag_65\n      jump\t// in\n    tag_89:\n        /* \"#utility.yul\":1703:1706   */\n      dup3\n        /* \"#utility.yul\":1696:1733   */\n      mstore\n        /* \"#utility.yul\":1621:1739   */\n      pop\n      pop\n      jump\t// out\n        /* \"#utility.yul\":1745:1967   */\n    tag_34:\n        /* \"#utility.yul\":1838:1842   */\n      0x00\n        /* \"#utility.yul\":1876:1878   */\n      0x20\n        /* \"#utility.yul\":1865:1874   */\n      dup3\n        /* \"#utility.yul\":1861:1879   */\n      add\n        /* \"#utility.yul\":1853:1879   */\n      swap1\n      pop\n        /* \"#utility.yul\":1889:1960   */\n      tag_91\n        /* \"#utility.yul\":1957:1958   */\n      0x00\n        /* \"#utility.yul\":1946:1955   */\n      dup4\n        /* \"#utility.yul\":1942:1959   */\n      add\n        /* \"#utility.yul\":1933:1939   */\n      dup5\n        /* \"#utility.yul\":1889:1960   */\n      tag_66\n      jump\t// in\n    tag_91:\n        /* \"#utility.yul\":1745:1967   */\n      swap3\n      swap2\n      pop\n      pop\n      jump\t// out\n        /* \"#utility.yul\":1973:2153   */\n    tag_67:\n        /* \"#utility.yul\":2021:2098   */\n      0x4e487b7100000000000000000000000000000000000000000000000000000000\n        /* \"#utility.yul\":2018:2019   */\n      0x00\n        /* \"#utility.yul\":2011:2099   */\n      mstore\n        /* \"#utility.yul\":2118:2122   */\n      0x11\n        /* \"#utility.yul\":2115:2116   */\n      0x04\n        /* \"#utility.yul\":2108:2123   */\n      mstore\n        /* \"#utility.yul\":2142:2146   */\n      0x24\n        /* \"#utility.yul\":2139:2140   */\n      0x00\n        /* \"#utility.yul\":2132:2147   */\n      revert\n        /* \"#utility.yul\":2159:2350   */\n    tag_45:\n        /* \"#utility.yul\":2199:2202   */\n      0x00\n        /* \"#utility.yul\":2218:2238   */\n      tag_94\n        /* \"#utility.yul\":2236:2237   */\n      dup3\n        /* \"#utility.yul\":2218:2238   */\n      tag_63\n      jump\t// in\n    tag_94:\n        /* \"#utility.yul\":2213:2238   */\n      swap2\n      pop\n        /* \"#utility.yul\":2252:2272   */\n      tag_95\n        /* \"#utility.yul\":2270:2271   */\n      dup4\n        /* \"#utility.yul\":2252:2272   */\n      tag_63\n      jump\t// in\n    tag_95:\n        /* \"#utility.yul\":2247:2272   */\n      swap3\n      pop\n        /* \"#utility.yul\":2295:2296   */\n      dup3\n        /* \"#utility.yul\":2292:2293   */\n      dup3\n        /* \"#utility.yul\":2288:2297   */\n      add\n        /* \"#utility.yul\":2281:2297   */\n      swap1\n      pop\n        /* \"#utility.yul\":2316:2319   */\n      dup1\n        /* \"#utility.yul\":2313:2314   */\n      dup3\n        /* \"#utility.yul\":2310:2320   */\n      gt\n        /* \"#utility.yul\":2307:2343   */\n      iszero\n      tag_96\n      jumpi\n        /* \"#utility.yul\":2323:2341   */\n      tag_97\n      tag_67\n      jump\t// in\n    tag_97:\n        /* \"#utility.yul\":2307:2343   */\n    tag_96:\n        /* \"#utility.yul\":2159:2350   */\n      swap3\n      swap2\n      pop\n      pop\n      jump\t// out\n        /* \"#utility.yul\":2356:2688   */\n    tag_47:\n        /* \"#utility.yul\":2477:2481   */\n      0x00\n        /* \"#utility.yul\":2515:2517   */\n      0x40\n        /* \"#utility.yul\":2504:2513   */\n      dup3\n        /* \"#utility.yul\":2500:2518   */\n      add\n        /* \"#utility.yul\":2492:2518   */\n      swap1\n      pop\n        /* \"#utility.yul\":2528:2599   */\n      tag_99\n        /* \"#utility.yul\":2596:2597   */\n      0x00\n        /* \"#utility.yul\":2585:2594   */\n      dup4\n        /* \"#utility.yul\":2581:2598   */\n      add\n        /* \"#utility.yul\":2572:2578   */\n      dup6\n        /* \"#utility.yul\":2528:2599   */\n      tag_66\n      jump\t// in\n    tag_99:\n        /* \"#utility.yul\":2609:2681   */\n      tag_100\n        /* \"#utility.yul\":2677:2679   */\n      0x20\n        /* \"#utility.yul\":2666:2675   */\n      dup4\n        /* \"#utility.yul\":2662:2680   */\n      add\n        /* \"#utility.yul\":2653:2659   */\n      dup5\n        /* \"#utility.yul\":2609:2681   */\n      tag_64\n      jump\t// in\n    tag_100:\n        /* \"#utility.yul\":2356:2688   */\n      swap4\n      swap3\n      pop\n      pop\n      pop\n      jump\t// out\n\n    auxdata: 0xa264697066735822122002548800858ae5bece105dce6c648421c314a5f787dc8182a3c3f2dd320ee93764736f6c634300081a0033\n}\n",
				"bytecode": {
					"linkReferences": {},
					"object": "608060405234801561000f575f80fd5b5060405161092e38038061092e8339818101604052810190610031919061011a565b805f806101000a81548173ffffffffffffffffffffffffffffffffffffffff021916908373ffffffffffffffffffffffffffffffffffffffff160217905550814261007c9190610185565b60018190555050506101b8565b5f80fd5b5f819050919050565b61009f8161008d565b81146100a9575f80fd5b50565b5f815190506100ba81610096565b92915050565b5f73ffffffffffffffffffffffffffffffffffffffff82169050919050565b5f6100e9826100c0565b9050919050565b6100f9816100df565b8114610103575f80fd5b50565b5f81519050610114816100f0565b92915050565b5f80604083850312156101305761012f610089565b5b5f61013d858286016100ac565b925050602061014e85828601610106565b9150509250929050565b7f4e487b71000000000000000000000000000000000000000000000000000000005f52601160045260245ffd5b5f61018f8261008d565b915061019a8361008d565b92508282019050808211156101b2576101b1610158565b5b92915050565b610769806101c55f395ff3fe60806040526004361061006f575f3560e01c80633ccfd60b1161004d5780633ccfd60b146100bd5780634b449cba146100e757806391f9015714610111578063d57bde791461013b5761006f565b80631998aeef146100735780632a24f46c1461007d57806338af3eed14610093575b5f80fd5b61007b610165565b005b348015610088575f80fd5b506100916102eb565b005b34801561009e575f80fd5b506100a761044a565b6040516100b491906105f6565b60405180910390f35b3480156100c8575f80fd5b506100d161046d565b6040516100de9190610629565b60405180910390f35b3480156100f2575f80fd5b506100fb610586565b604051610108919061065a565b60405180910390f35b34801561011c575f80fd5b5061012561058c565b6040516101329190610693565b60405180910390f35b348015610146575f80fd5b5061014f6105b1565b60405161015c919061065a565b60405180910390f35b6001544211156101a1576040517fd02e774d00000000000000000000000000000000000000000000000000000000815260040160405180910390fd5b60035434116101e9576003546040517f4e12c1bb0000000000000000000000000000000000000000000000000000000081526004016101e0919061065a565b60405180910390fd5b5f600354146102695760035460045f60025f9054906101000a900473ffffffffffffffffffffffffffffffffffffffff1673ffffffffffffffffffffffffffffffffffffffff1673ffffffffffffffffffffffffffffffffffffffff1681526020019081526020015f205f82825461026191906106d9565b925050819055505b3360025f6101000a81548173ffffffffffffffffffffffffffffffffffffffff021916908373ffffffffffffffffffffffffffffffffffffffff160217905550346003819055507ff4757a49b326036464bec6fe419a4ae38c8a02ce3e68bf0809674f6aab8ad30033346040516102e192919061070c565b60405180910390a1565b600154421015610327576040517f44cee29000000000000000000000000000000000000000000000000000000000815260040160405180910390fd5b60055f9054906101000a900460ff161561036d576040517f61cfdcf800000000000000000000000000000000000000000000000000000000815260040160405180910390fd5b600160055f6101000a81548160ff0219169083151502179055507fdaec4582d5d9595688c8c98545fdd1c696d41c6aeaeb636737e84ed2f5c00eda60025f9054906101000a900473ffffffffffffffffffffffffffffffffffffffff166003546040516103db92919061070c565b60405180910390a15f8054906101000a900473ffffffffffffffffffffffffffffffffffffffff1673ffffffffffffffffffffffffffffffffffffffff166108fc60035490811502906040515f60405180830381858888f19350505050158015610447573d5f803e3d5ffd5b50565b5f8054906101000a900473ffffffffffffffffffffffffffffffffffffffff1681565b5f8060045f3373ffffffffffffffffffffffffffffffffffffffff1673ffffffffffffffffffffffffffffffffffffffff1681526020019081526020015f205490505f81111561057d575f60045f3373ffffffffffffffffffffffffffffffffffffffff1673ffffffffffffffffffffffffffffffffffffffff1681526020019081526020015f20819055503373ffffffffffffffffffffffffffffffffffffffff166108fc8290811502906040515f60405180830381858888f1935050505061057c578060045f3373ffffffffffffffffffffffffffffffffffffffff1673ffffffffffffffffffffffffffffffffffffffff1681526020019081526020015f20819055505f915050610583565b5b60019150505b90565b60015481565b60025f9054906101000a900473ffffffffffffffffffffffffffffffffffffffff1681565b60035481565b5f73ffffffffffffffffffffffffffffffffffffffff82169050919050565b5f6105e0826105b7565b9050919050565b6105f0816105d6565b82525050565b5f6020820190506106095f8301846105e7565b92915050565b5f8115159050919050565b6106238161060f565b82525050565b5f60208201905061063c5f83018461061a565b92915050565b5f819050919050565b61065481610642565b82525050565b5f60208201905061066d5f83018461064b565b92915050565b5f61067d826105b7565b9050919050565b61068d81610673565b82525050565b5f6020820190506106a65f830184610684565b92915050565b7f4e487b71000000000000000000000000000000000000000000000000000000005f52601160045260245ffd5b5f6106e382610642565b91506106ee83610642565b9250828201905080821115610706576107056106ac565b5b92915050565b5f60408201905061071f5f830185610684565b61072c602083018461064b565b939250505056fea264697066735822122002548800858ae5bece105dce6c648421c314a5f787dc8182a3c3f2dd320ee93764736f6c634300081a0033",
					"opcodes": "PUSH1 0x80 PUSH1 0x40 MSTORE CALLVALUE DUP1 ISZERO PUSH2 0xF JUMPI PUSH0 DUP1 REVERT JUMPDEST POP PUSH1 0x40 MLOAD PUSH2 0x92E CODESIZE SUB DUP1 PUSH2 0x92E DUP4 CODECOPY DUP2 DUP2 ADD PUSH1 0x40 MSTORE DUP2 ADD SWAP1 PUSH2 0x31 SWAP2 SWAP1 PUSH2 0x11A JUMP JUMPDEST DUP1 PUSH0 DUP1 PUSH2 0x100 EXP DUP2 SLOAD DUP2 PUSH20 0xFFFFFFFFFFFFFFFFFFFFFFFFFFFFFFFFFFFFFFFF MUL NOT AND SWAP1 DUP4 PUSH20 0xFFFFFFFFFFFFFFFFFFFFFFFFFFFFFFFFFFFFFFFF AND MUL OR SWAP1 SSTORE POP DUP2 TIMESTAMP PUSH2 0x7C SWAP2 SWAP1 PUSH2 0x185 JUMP JUMPDEST PUSH1 0x1 DUP2 SWAP1 SSTORE POP POP POP PUSH2 0x1B8 JUMP JUMPDEST PUSH0 DUP1 REVERT JUMPDEST PUSH0 DUP2 SWAP1 POP SWAP2 SWAP1 POP JUMP JUMPDEST PUSH2 0x9F DUP2 PUSH2 0x8D JUMP JUMPDEST DUP2 EQ PUSH2 0xA9 JUMPI PUSH0 DUP1 REVERT JUMPDEST POP JUMP JUMPDEST PUSH0 DUP2 MLOAD SWAP1 POP PUSH2 0xBA DUP2 PUSH2 0x96 JUMP JUMPDEST SWAP3 SWAP2 POP POP JUMP JUMPDEST PUSH0 PUSH20 0xFFFFFFFFFFFFFFFFFFFFFFFFFFFFFFFFFFFFFFFF DUP3 AND SWAP1 POP SWAP2 SWAP1 POP JUMP JUMPDEST PUSH0 PUSH2 0xE9 DUP3 PUSH2 0xC0 JUMP JUMPDEST SWAP1 POP SWAP2 SWAP1 POP JUMP JUMPDEST PUSH2 0xF9 DUP2 PUSH2 0xDF JUMP JUMPDEST DUP2 EQ PUSH2 0x103 JUMPI PUSH0 DUP1 REVERT JUMPDEST POP JUMP JUMPDEST PUSH0 DUP2 MLOAD SWAP1 POP PUSH2 0x114 DUP2 PUSH2 0xF0 JUMP JUMPDEST SWAP3 SWAP2 POP POP JUMP JUMPDEST PUSH0 DUP1 PUSH1 0x40 DUP4 DUP6 SUB SLT ISZERO PUSH2 0x130 JUMPI PUSH2 0x12F PUSH2 0x89 JUMP JUMPDEST JUMPDEST PUSH0 PUSH2 0x13D DUP6 DUP3 DUP7 ADD PUSH2 0xAC JUMP JUMPDEST SWAP3 POP POP PUSH1 0x20 PUSH2 0x14E DUP6 DUP3 DUP7 ADD PUSH2 0x106 JUMP JUMPDEST SWAP2 POP POP SWAP3 POP SWAP3 SWAP1 POP JUMP JUMPDEST PUSH32 0x4E487B7100000000000000000000000000000000000000000000000000000000 PUSH0 MSTORE PUSH1 0x11 PUSH1 0x4 MSTORE PUSH1 0x24 PUSH0 REVERT JUMPDEST PUSH0 PUSH2 0x18F DUP3 PUSH2 0x8D JUMP JUMPDEST SWAP2 POP PUSH2 0x19A DUP4 PUSH2 0x8D JUMP JUMPDEST SWAP3 POP DUP3 DUP3 ADD SWAP1 POP DUP1 DUP3 GT ISZERO PUSH2 0x1B2 JUMPI PUSH2 0x1B1 PUSH2 0x158 JUMP JUMPDEST JUMPDEST SWAP3 SWAP2 POP POP JUMP JUMPDEST PUSH2 0x769 DUP1 PUSH2 0x1C5 PUSH0 CODECOPY PUSH0 RETURN INVALID PUSH1 0x80 PUSH1 0x40 MSTORE PUSH1 0x4 CALLDATASIZE LT PUSH2 0x6F JUMPI PUSH0 CALLDATALOAD PUSH1 0xE0 SHR DUP1 PUSH4 0x3CCFD60B GT PUSH2 0x4D JUMPI DUP1 PUSH4 0x3CCFD60B EQ PUSH2 0xBD JUMPI DUP1 PUSH4 0x4B449CBA EQ PUSH2 0xE7 JUMPI DUP1 PUSH4 0x91F90157 EQ PUSH2 0x111 JUMPI DUP1 PUSH4 0xD57BDE79 EQ PUSH2 0x13B JUMPI PUSH2 0x6F JUMP JUMPDEST DUP1 PUSH4 0x1998AEEF EQ PUSH2 0x73 JUMPI DUP1 PUSH4 0x2A24F46C EQ PUSH2 0x7D JUMPI DUP1 PUSH4 0x38AF3EED EQ PUSH2 0x93 JUMPI JUMPDEST PUSH0 DUP1 REVERT JUMPDEST PUSH2 0x7B PUSH2 0x165 JUMP JUMPDEST STOP JUMPDEST CALLVALUE DUP1 ISZERO PUSH2 0x88 JUMPI PUSH0 DUP1 REVERT JUMPDEST POP PUSH2 0x91 PUSH2 0x2EB JUMP JUMPDEST STOP JUMPDEST CALLVALUE DUP1 ISZERO PUSH2 0x9E JUMPI PUSH0 DUP1 REVERT JUMPDEST POP PUSH2 0xA7 PUSH2 0x44A JUMP JUMPDEST PUSH1 0x40 MLOAD PUSH2 0xB4 SWAP2 SWAP1 PUSH2 0x5F6 JUMP JUMPDEST PUSH1 0x40 MLOAD DUP1 SWAP2 SUB SWAP1 RETURN JUMPDEST CALLVALUE DUP1 ISZERO PUSH2 0xC8 JUMPI PUSH0 DUP1 REVERT JUMPDEST POP PUSH2 0xD1 PUSH2 0x46D JUMP JUMPDEST PUSH1 0x40 MLOAD PUSH2 0xDE SWAP2 SWAP1 PUSH2 0x629 JUMP JUMPDEST PUSH1 0x40 MLOAD DUP1 SWAP2 SUB SWAP1 RETURN JUMPDEST CALLVALUE DUP1 ISZERO PUSH2 0xF2 JUMPI PUSH0 DUP1 REVERT JUMPDEST POP PUSH2 0xFB PUSH2 0x586 JUMP JUMPDEST PUSH1 0x40 MLOAD PUSH2 0x108 SWAP2 SWAP1 PUSH2 0x65A JUMP JUMPDEST PUSH1 0x40 MLOAD DUP1 SWAP2 SUB SWAP1 RETURN JUMPDEST CALLVALUE DUP1 ISZERO PUSH2 0x11C JUMPI PUSH0 DUP1 REVERT JUMPDEST POP PUSH2 0x125 PUSH2 0x58C JUMP JUMPDEST PUSH1 0x40 MLOAD PUSH2 0x132 SWAP2 SWAP1 PUSH2 0x693 JUMP JUMPDEST PUSH1 0x40 MLOAD DUP1 SWAP2 SUB SWAP1 RETURN JUMPDEST CALLVALUE DUP1 ISZERO PUSH2 0x146 JUMPI PUSH0 DUP1 REVERT JUMPDEST POP PUSH2 0x14F PUSH2 0x5B1 JUMP JUMPDEST PUSH1 0x40 MLOAD PUSH2 0x15C SWAP2 SWAP1 PUSH2 0x65A JUMP JUMPDEST PUSH1 0x40 MLOAD DUP1 SWAP2 SUB SWAP1 RETURN JUMPDEST PUSH1 0x1 SLOAD TIMESTAMP GT ISZERO PUSH2 0x1A1 JUMPI PUSH1 0x40 MLOAD PUSH32 0xD02E774D00000000000000000000000000000000000000000000000000000000 DUP2 MSTORE PUSH1 0x4 ADD PUSH1 0x40 MLOAD DUP1 SWAP2 SUB SWAP1 REVERT JUMPDEST PUSH1 0x3 SLOAD CALLVALUE GT PUSH2 0x1E9 JUMPI PUSH1 0x3 SLOAD PUSH1 0x40 MLOAD PUSH32 0x4E12C1BB00000000000000000000000000000000000000000000000000000000 DUP2 MSTORE PUSH1 0x4 ADD PUSH2 0x1E0 SWAP2 SWAP1 PUSH2 0x65A JUMP JUMPDEST PUSH1 0x40 MLOAD DUP1 SWAP2 SUB SWAP1 REVERT JUMPDEST PUSH0 PUSH1 0x3 SLOAD EQ PUSH2 0x269 JUMPI PUSH1 0x3 SLOAD PUSH1 0x4 PUSH0 PUSH1 0x2 PUSH0 SWAP1 SLOAD SWAP1 PUSH2 0x100 EXP SWAP1 DIV PUSH20 0xFFFFFFFFFFFFFFFFFFFFFFFFFFFFFFFFFFFFFFFF AND PUSH20 0xFFFFFFFFFFFFFFFFFFFFFFFFFFFFFFFFFFFFFFFF AND PUSH20 0xFFFFFFFFFFFFFFFFFFFFFFFFFFFFFFFFFFFFFFFF AND DUP2 MSTORE PUSH1 0x20 ADD SWAP1 DUP2 MSTORE PUSH1 0x20 ADD PUSH0 KECCAK256 PUSH0 DUP3 DUP3 SLOAD PUSH2 0x261 SWAP2 SWAP1 PUSH2 0x6D9 JUMP JUMPDEST SWAP3 POP POP DUP2 SWAP1 SSTORE POP JUMPDEST CALLER PUSH1 0x2 PUSH0 PUSH2 0x100 EXP DUP2 SLOAD DUP2 PUSH20 0xFFFFFFFFFFFFFFFFFFFFFFFFFFFFFFFFFFFFFFFF MUL NOT AND SWAP1 DUP4 PUSH20 0xFFFFFFFFFFFFFFFFFFFFFFFFFFFFFFFFFFFFFFFF AND MUL OR SWAP1 SSTORE POP CALLVALUE PUSH1 0x3 DUP2 SWAP1 SSTORE POP PUSH32 0xF4757A49B326036464BEC6FE419A4AE38C8A02CE3E68BF0809674F6AAB8AD300 CALLER CALLVALUE PUSH1 0x40 MLOAD PUSH2 0x2E1 SWAP3 SWAP2 SWAP1 PUSH2 0x70C JUMP JUMPDEST PUSH1 0x40 MLOAD DUP1 SWAP2 SUB SWAP1 LOG1 JUMP JUMPDEST PUSH1 0x1 SLOAD TIMESTAMP LT ISZERO PUSH2 0x327 JUMPI PUSH1 0x40 MLOAD PUSH32 0x44CEE29000000000000000000000000000000000000000000000000000000000 DUP2 MSTORE PUSH1 0x4 ADD PUSH1 0x40 MLOAD DUP1 SWAP2 SUB SWAP1 REVERT JUMPDEST PUSH1 0x5 PUSH0 SWAP1 SLOAD SWAP1 PUSH2 0x100 EXP SWAP1 DIV PUSH1 0xFF AND ISZERO PUSH2 0x36D JUMPI PUSH1 0x40 MLOAD PUSH32 0x61CFDCF800000000000000000000000000000000000000000000000000000000 DUP2 MSTORE PUSH1 0x4 ADD PUSH1 0x40 MLOAD DUP1 SWAP2 SUB SWAP1 REVERT JUMPDEST PUSH1 0x1 PUSH1 0x5 PUSH0 PUSH2 0x100 EXP DUP2 SLOAD DUP2 PUSH1 0xFF MUL NOT AND SWAP1 DUP4 ISZERO ISZERO MUL OR SWAP1 SSTORE POP PUSH32 0xDAEC4582D5D9595688C8C98545FDD1C696D41C6AEAEB636737E84ED2F5C00EDA PUSH1 0x2 PUSH0 SWAP1 SLOAD SWAP1 PUSH2 0x100 EXP SWAP1 DIV PUSH20 0xFFFFFFFFFFFFFFFFFFFFFFFFFFFFFFFFFFFFFFFF AND PUSH1 0x3 SLOAD PUSH1 0x40 MLOAD PUSH2 0x3DB SWAP3 SWAP2 SWAP1 PUSH2 0x70C JUMP JUMPDEST PUSH1 0x40 MLOAD DUP1 SWAP2 SUB SWAP1 LOG1 PUSH0 DUP1 SLOAD SWAP1 PUSH2 0x100 EXP SWAP1 DIV PUSH20 0xFFFFFFFFFFFFFFFFFFFFFFFFFFFFFFFFFFFFFFFF AND PUSH20 0xFFFFFFFFFFFFFFFFFFFFFFFFFFFFFFFFFFFFFFFF AND PUSH2 0x8FC PUSH1 0x3 SLOAD SWAP1 DUP2 ISZERO MUL SWAP1 PUSH1 0x40 MLOAD PUSH0 PUSH1 0x40 MLOAD DUP1 DUP4 SUB DUP2 DUP6 DUP9 DUP9 CALL SWAP4 POP POP POP POP ISZERO DUP1 ISZERO PUSH2 0x447 JUMPI RETURNDATASIZE PUSH0 DUP1 RETURNDATACOPY RETURNDATASIZE PUSH0 REVERT JUMPDEST POP JUMP JUMPDEST PUSH0 DUP1 SLOAD SWAP1 PUSH2 0x100 EXP SWAP1 DIV PUSH20 0xFFFFFFFFFFFFFFFFFFFFFFFFFFFFFFFFFFFFFFFF AND DUP2 JUMP JUMPDEST PUSH0 DUP1 PUSH1 0x4 PUSH0 CALLER PUSH20 0xFFFFFFFFFFFFFFFFFFFFFFFFFFFFFFFFFFFFFFFF AND PUSH20 0xFFFFFFFFFFFFFFFFFFFFFFFFFFFFFFFFFFFFFFFF AND DUP2 MSTORE PUSH1 0x20 ADD SWAP1 DUP2 MSTORE PUSH1 0x20 ADD PUSH0 KECCAK256 SLOAD SWAP1 POP PUSH0 DUP2 GT ISZERO PUSH2 0x57D JUMPI PUSH0 PUSH1 0x4 PUSH0 CALLER PUSH20 0xFFFFFFFFFFFFFFFFFFFFFFFFFFFFFFFFFFFFFFFF AND PUSH20 0xFFFFFFFFFFFFFFFFFFFFFFFFFFFFFFFFFFFFFFFF AND DUP2 MSTORE PUSH1 0x20 ADD SWAP1 DUP2 MSTORE PUSH1 0x20 ADD PUSH0 KECCAK256 DUP2 SWAP1 SSTORE POP CALLER PUSH20 0xFFFFFFFFFFFFFFFFFFFFFFFFFFFFFFFFFFFFFFFF AND PUSH2 0x8FC DUP3 SWAP1 DUP2 ISZERO MUL SWAP1 PUSH1 0x40 MLOAD PUSH0 PUSH1 0x40 MLOAD DUP1 DUP4 SUB DUP2 DUP6 DUP9 DUP9 CALL SWAP4 POP POP POP POP PUSH2 0x57C JUMPI DUP1 PUSH1 0x4 PUSH0 CALLER PUSH20 0xFFFFFFFFFFFFFFFFFFFFFFFFFFFFFFFFFFFFFFFF AND PUSH20 0xFFFFFFFFFFFFFFFFFFFFFFFFFFFFFFFFFFFFFFFF AND DUP2 MSTORE PUSH1 0x20 ADD SWAP1 DUP2 MSTORE PUSH1 0x20 ADD PUSH0 KECCAK256 DUP2 SWAP1 SSTORE POP PUSH0 SWAP2 POP POP PUSH2 0x583 JUMP JUMPDEST JUMPDEST PUSH1 0x1 SWAP2 POP POP JUMPDEST SWAP1 JUMP JUMPDEST PUSH1 0x1 SLOAD DUP2 JUMP JUMPDEST PUSH1 0x2 PUSH0 SWAP1 SLOAD SWAP1 PUSH2 0x100 EXP SWAP1 DIV PUSH20 0xFFFFFFFFFFFFFFFFFFFFFFFFFFFFFFFFFFFFFFFF AND DUP2 JUMP JUMPDEST PUSH1 0x3 SLOAD DUP2 JUMP JUMPDEST PUSH0 PUSH20 0xFFFFFFFFFFFFFFFFFFFFFFFFFFFFFFFFFFFFFFFF DUP3 AND SWAP1 POP SWAP2 SWAP1 POP JUMP JUMPDEST PUSH0 PUSH2 0x5E0 DUP3 PUSH2 0x5B7 JUMP JUMPDEST SWAP1 POP SWAP2 SWAP1 POP JUMP JUMPDEST PUSH2 0x5F0 DUP2 PUSH2 0x5D6 JUMP JUMPDEST DUP3 MSTORE POP POP JUMP JUMPDEST PUSH0 PUSH1 0x20 DUP3 ADD SWAP1 POP PUSH2 0x609 PUSH0 DUP4 ADD DUP5 PUSH2 0x5E7 JUMP JUMPDEST SWAP3 SWAP2 POP POP JUMP JUMPDEST PUSH0 DUP2 ISZERO ISZERO SWAP1 POP SWAP2 SWAP1 POP JUMP JUMPDEST PUSH2 0x623 DUP2 PUSH2 0x60F JUMP JUMPDEST DUP3 MSTORE POP POP JUMP JUMPDEST PUSH0 PUSH1 0x20 DUP3 ADD SWAP1 POP PUSH2 0x63C PUSH0 DUP4 ADD DUP5 PUSH2 0x61A JUMP JUMPDEST SWAP3 SWAP2 POP POP JUMP JUMPDEST PUSH0 DUP2 SWAP1 POP SWAP2 SWAP1 POP JUMP JUMPDEST PUSH2 0x654 DUP2 PUSH2 0x642 JUMP JUMPDEST DUP3 MSTORE POP POP JUMP JUMPDEST PUSH0 PUSH1 0x20 DUP3 ADD SWAP1 POP PUSH2 0x66D PUSH0 DUP4 ADD DUP5 PUSH2 0x64B JUMP JUMPDEST SWAP3 SWAP2 POP POP JUMP JUMPDEST PUSH0 PUSH2 0x67D DUP3 PUSH2 0x5B7 JUMP JUMPDEST SWAP1 POP SWAP2 SWAP1 POP JUMP JUMPDEST PUSH2 0x68D DUP2 PUSH2 0x673 JUMP JUMPDEST DUP3 MSTORE POP POP JUMP JUMPDEST PUSH0 PUSH1 0x20 DUP3 ADD SWAP1 POP PUSH2 0x6A6 PUSH0 DUP4 ADD DUP5 PUSH2 0x684 JUMP JUMPDEST SWAP3 SWAP2 POP POP JUMP JUMPDEST PUSH32 0x4E487B7100000000000000000000000000000000000000000000000000000000 PUSH0 MSTORE PUSH1 0x11 PUSH1 0x4 MSTORE PUSH1 0x24 PUSH0 REVERT JUMPDEST PUSH0 PUSH2 0x6E3 DUP3 PUSH2 0x642 JUMP JUMPDEST SWAP2 POP PUSH2 0x6EE DUP4 PUSH2 0x642 JUMP JUMPDEST SWAP3 POP DUP3 DUP3 ADD SWAP1 POP DUP1 DUP3 GT ISZERO PUSH2 0x706 JUMPI PUSH2 0x705 PUSH2 0x6AC JUMP JUMPDEST JUMPDEST SWAP3 SWAP2 POP POP JUMP JUMPDEST PUSH0 PUSH1 0x40 DUP3 ADD SWAP1 POP PUSH2 0x71F PUSH0 DUP4 ADD DUP6 PUSH2 0x684 JUMP JUMPDEST PUSH2 0x72C PUSH1 0x20 DUP4 ADD DUP5 PUSH2 0x64B JUMP JUMPDEST SWAP4 SWAP3 POP POP POP JUMP INVALID LOG2 PUSH5 0x6970667358 0x22 SLT KECCAK256 MUL SLOAD DUP9 STOP DUP6 DUP11 0xE5 0xBE 0xCE LT TSTORE 0xCE PUSH13 0x648421C314A5F787DC8182A3C3 CALLCODE 0xDD ORIGIN 0xE 0xE9 CALLDATACOPY PUSH5 0x736F6C6343 STOP ADDMOD BYTE STOP CALLER "
				},
				"gasEstimates": {
					"creation": {
						"codeDepositCost": "379400",
						"executionCost": "infinite",
						"totalCost": "infinite"
					},
					"external": {
						"auctionEnd()": "infinite",
						"auctionEndTime()": "2447",
						"beneficiary()": "2550",
						"bid()": "infinite",
						"highestBid()": "2491",
						"highestBidder()": "2552",
						"withdraw()": "infinite"
					}
				},
				"methodIdentifiers": {
					"auctionEnd()": "2a24f46c",
					"auctionEndTime()": "4b449cba",
					"beneficiary()": "38af3eed",
					"bid()": "1998aeef",
					"highestBid()": "d57bde79",
					"highestBidder()": "91f90157",
					"withdraw()": "3ccfd60b"
				}
			},
			"storageLayout": {
				"storage": [
					{
						"astId": 3,
						"contract": "Solidity Contracts/simpleopenauction.sol:SimpleAuction",
						"label": "beneficiary",
						"offset": 0,
						"slot": "0",
						"type": "t_address_payable"
					},
					{
						"astId": 5,
						"contract": "Solidity Contracts/simpleopenauction.sol:SimpleAuction",
						"label": "auctionEndTime",
						"offset": 0,
						"slot": "1",
						"type": "t_uint256"
					},
					{
						"astId": 7,
						"contract": "Solidity Contracts/simpleopenauction.sol:SimpleAuction",
						"label": "highestBidder",
						"offset": 0,
						"slot": "2",
						"type": "t_address"
					},
					{
						"astId": 9,
						"contract": "Solidity Contracts/simpleopenauction.sol:SimpleAuction",
						"label": "highestBid",
						"offset": 0,
						"slot": "3",
						"type": "t_uint256"
					},
					{
						"astId": 13,
						"contract": "Solidity Contracts/simpleopenauction.sol:SimpleAuction",
						"label": "pendingReturns",
						"offset": 0,
						"slot": "4",
						"type": "t_mapping(t_address,t_uint256)"
					},
					{
						"astId": 15,
						"contract": "Solidity Contracts/simpleopenauction.sol:SimpleAuction",
						"label": "ended",
						"offset": 0,
						"slot": "5",
						"type": "t_bool"
					}
				],
				"types": {
					"t_address": {
						"encoding": "inplace",
						"label": "address",
						"numberOfBytes": "20"
					},
					"t_address_payable": {
						"encoding": "inplace",
						"label": "address payable",
						"numberOfBytes": "20"
					},
					"t_bool": {
						"encoding": "inplace",
						"label": "bool",
						"numberOfBytes": "1"
					},
					"t_mapping(t_address,t_uint256)": {
						"encoding": "mapping",
						"key": "t_address",
						"label": "mapping(address => uint256)",
						"numberOfBytes": "32",
						"value": "t_uint256"
					},
					"t_uint256": {
						"encoding": "inplace",
						"label": "uint256",
						"numberOfBytes": "32"
					}
				}
			},
			"userdoc": {
				"errors": {
					"AuctionAlreadyEnded()": [
						{
							"notice": "The auction has already ended."
						}
					],
					"AuctionEndAlreadyCalled()": [
						{
							"notice": "The function auctionEnd has already been called."
						}
					],
					"AuctionNotYetEnded()": [
						{
							"notice": "The auction has not ended yet."
						}
					],
					"BidNotHighEnough(uint256)": [
						{
							"notice": "There is already a higher or equal bid."
						}
					]
				},
				"kind": "user",
				"methods": {
					"auctionEnd()": {
						"notice": "End the auction and send the highest bid to the beneficiary."
					},
					"bid()": {
						"notice": "Bid on the auction with the value sent together with this transaction. The value will only be refunded if the auction is not won."
					},
					"constructor": {
						"notice": "Create a simple auction with `biddingTime` seconds bidding time on behalf of the beneficiary address `beneficiaryAddress`."
					},
					"withdraw()": {
						"notice": "Withdraw a bid that was overbid."
					}
				},
				"version": 1
			}
		}
	}
}