{
	"Solidity Contracts/fullcontract.sol": {
		"ReceiverPays": {
			"abi": [
				{
					"inputs": [],
					"stateMutability": "payable",
					"type": "constructor"
				},
				{
					"inputs": [
						{
							"internalType": "uint256",
							"name": "amount",
							"type": "uint256"
						},
						{
							"internalType": "uint256",
							"name": "nonce",
							"type": "uint256"
						},
						{
							"internalType": "bytes",
							"name": "signature",
							"type": "bytes"
						}
					],
					"name": "claimPayment",
					"outputs": [],
					"stateMutability": "nonpayable",
					"type": "function"
				},
				{
					"inputs": [],
					"name": "shutdown",
					"outputs": [],
					"stateMutability": "nonpayable",
					"type": "function"
				}
			],
			"devdoc": {
				"kind": "dev",
				"methods": {},
				"version": 1
			},
			"evm": {
				"assembly": "    /* \"Solidity Contracts/fullcontract.sol\":465:2350  contract ReceiverPays is Freezable {... */\n  mstore(0x40, 0x80)\n    /* \"Solidity Contracts/fullcontract.sol\":247:252  false */\n  0x00\n    /* \"Solidity Contracts/fullcontract.sol\":224:252  bool private _frozen = false */\n  dup1\n  exp(0x0100, 0x14)\n  dup2\n  sload\n  dup2\n  0xff\n  mul\n  not\n  and\n  swap1\n  dup4\n  iszero\n  iszero\n  mul\n  or\n  swap1\n  sstore\n  pop\n    /* \"Solidity Contracts/fullcontract.sol\":163:173  msg.sender */\n  caller\n    /* \"Solidity Contracts/fullcontract.sol\":147:152  owner */\n  0x00\n  dup1\n    /* \"Solidity Contracts/fullcontract.sol\":147:174  owner = payable(msg.sender) */\n  0x0100\n  exp\n  dup2\n  sload\n  dup2\n  0xffffffffffffffffffffffffffffffffffffffff\n  mul\n  not\n  and\n  swap1\n  dup4\n  0xffffffffffffffffffffffffffffffffffffffff\n  and\n  mul\n  or\n  swap1\n  sstore\n  pop\n    /* \"Solidity Contracts/fullcontract.sol\":465:2350  contract ReceiverPays is Freezable {... */\n  dataSize(sub_0)\n  dup1\n  dataOffset(sub_0)\n  0x00\n  codecopy\n  0x00\n  return\nstop\n\nsub_0: assembly {\n        /* \"Solidity Contracts/fullcontract.sol\":465:2350  contract ReceiverPays is Freezable {... */\n      mstore(0x40, 0x80)\n      callvalue\n      dup1\n      iszero\n      tag_1\n      jumpi\n      0x00\n      dup1\n      revert\n    tag_1:\n      pop\n      jumpi(tag_2, lt(calldatasize, 0x04))\n      shr(0xe0, calldataload(0x00))\n      dup1\n      0xa90ae887\n      eq\n      tag_3\n      jumpi\n      dup1\n      0xfc0e74d1\n      eq\n      tag_4\n      jumpi\n    tag_2:\n      0x00\n      dup1\n      revert\n        /* \"Solidity Contracts/fullcontract.sol\":583:1062  function claimPayment(uint256 amount, uint256 nonce, bytes memory signature)... */\n    tag_3:\n      tag_5\n      0x04\n      dup1\n      calldatasize\n      sub\n      dup2\n      add\n      swap1\n      tag_6\n      swap2\n      swap1\n      tag_7\n      jump\t// in\n    tag_6:\n      tag_8\n      jump\t// in\n    tag_5:\n      stop\n        /* \"Solidity Contracts/fullcontract.sol\":1131:1321  function shutdown()... */\n    tag_4:\n      tag_9\n      tag_10\n      jump\t// in\n    tag_9:\n      stop\n        /* \"Solidity Contracts/fullcontract.sol\":583:1062  function claimPayment(uint256 amount, uint256 nonce, bytes memory signature)... */\n    tag_8:\n        /* \"Solidity Contracts/fullcontract.sol\":302:309  _frozen */\n      0x00\n      0x14\n      swap1\n      sload\n      swap1\n      0x0100\n      exp\n      swap1\n      div\n      0xff\n      and\n        /* \"Solidity Contracts/fullcontract.sol\":301:309  !_frozen */\n      iszero\n        /* \"Solidity Contracts/fullcontract.sol\":293:332  require(!_frozen, \"Inactive Contract.\") */\n      tag_12\n      jumpi\n      mload(0x40)\n      0x08c379a000000000000000000000000000000000000000000000000000000000\n      dup2\n      mstore\n      0x04\n      add\n      tag_13\n      swap1\n      tag_14\n      jump\t// in\n    tag_13:\n      mload(0x40)\n      dup1\n      swap2\n      sub\n      swap1\n      revert\n    tag_12:\n        /* \"Solidity Contracts/fullcontract.sol\":722:732  usedNonces */\n      0x01\n        /* \"Solidity Contracts/fullcontract.sol\":722:739  usedNonces[nonce] */\n      0x00\n        /* \"Solidity Contracts/fullcontract.sol\":733:738  nonce */\n      dup4\n        /* \"Solidity Contracts/fullcontract.sol\":722:739  usedNonces[nonce] */\n      dup2\n      mstore\n      0x20\n      add\n      swap1\n      dup2\n      mstore\n      0x20\n      add\n      0x00\n      keccak256\n      0x00\n      swap1\n      sload\n      swap1\n      0x0100\n      exp\n      swap1\n      div\n      0xff\n      and\n        /* \"Solidity Contracts/fullcontract.sol\":721:739  !usedNonces[nonce] */\n      iszero\n        /* \"Solidity Contracts/fullcontract.sol\":713:740  require(!usedNonces[nonce]) */\n      tag_16\n      jumpi\n      0x00\n      dup1\n      revert\n    tag_16:\n        /* \"Solidity Contracts/fullcontract.sol\":771:775  true */\n      0x01\n        /* \"Solidity Contracts/fullcontract.sol\":751:761  usedNonces */\n      dup1\n        /* \"Solidity Contracts/fullcontract.sol\":751:768  usedNonces[nonce] */\n      0x00\n        /* \"Solidity Contracts/fullcontract.sol\":762:767  nonce */\n      dup5\n        /* \"Solidity Contracts/fullcontract.sol\":751:768  usedNonces[nonce] */\n      dup2\n      mstore\n      0x20\n      add\n      swap1\n      dup2\n      mstore\n      0x20\n      add\n      0x00\n      keccak256\n      0x00\n        /* \"Solidity Contracts/fullcontract.sol\":751:775  usedNonces[nonce] = true */\n      0x0100\n      exp\n      dup2\n      sload\n      dup2\n      0xff\n      mul\n      not\n      and\n      swap1\n      dup4\n      iszero\n      iszero\n      mul\n      or\n      swap1\n      sstore\n      pop\n        /* \"Solidity Contracts/fullcontract.sol\":857:872  bytes32 message */\n      0x00\n        /* \"Solidity Contracts/fullcontract.sol\":875:945  prefixed(keccak256(abi.encodePacked(msg.sender, amount, nonce, this))) */\n      tag_17\n        /* \"Solidity Contracts/fullcontract.sol\":911:921  msg.sender */\n      caller\n        /* \"Solidity Contracts/fullcontract.sol\":923:929  amount */\n      dup6\n        /* \"Solidity Contracts/fullcontract.sol\":931:936  nonce */\n      dup6\n        /* \"Solidity Contracts/fullcontract.sol\":938:942  this */\n      address\n        /* \"Solidity Contracts/fullcontract.sol\":894:943  abi.encodePacked(msg.sender, amount, nonce, this) */\n      add(0x20, mload(0x40))\n      tag_18\n      swap5\n      swap4\n      swap3\n      swap2\n      swap1\n      tag_19\n      jump\t// in\n    tag_18:\n      mload(0x40)\n      0x20\n      dup2\n      dup4\n      sub\n      sub\n      dup2\n      mstore\n      swap1\n      0x40\n      mstore\n        /* \"Solidity Contracts/fullcontract.sol\":884:944  keccak256(abi.encodePacked(msg.sender, amount, nonce, this)) */\n      dup1\n      mload\n      swap1\n      0x20\n      add\n      keccak256\n        /* \"Solidity Contracts/fullcontract.sol\":875:883  prefixed */\n      tag_20\n        /* \"Solidity Contracts/fullcontract.sol\":875:945  prefixed(keccak256(abi.encodePacked(msg.sender, amount, nonce, this))) */\n      jump\t// in\n    tag_17:\n        /* \"Solidity Contracts/fullcontract.sol\":857:945  bytes32 message = prefixed(keccak256(abi.encodePacked(msg.sender, amount, nonce, this))) */\n      swap1\n      pop\n        /* \"Solidity Contracts/fullcontract.sol\":1001:1006  owner */\n      0x00\n      dup1\n      sload\n      swap1\n      0x0100\n      exp\n      swap1\n      div\n      0xffffffffffffffffffffffffffffffffffffffff\n      and\n        /* \"Solidity Contracts/fullcontract.sol\":964:1006  recoverSigner(message, signature) == owner */\n      0xffffffffffffffffffffffffffffffffffffffff\n      and\n        /* \"Solidity Contracts/fullcontract.sol\":964:997  recoverSigner(message, signature) */\n      tag_21\n        /* \"Solidity Contracts/fullcontract.sol\":978:985  message */\n      dup3\n        /* \"Solidity Contracts/fullcontract.sol\":987:996  signature */\n      dup5\n        /* \"Solidity Contracts/fullcontract.sol\":964:977  recoverSigner */\n      tag_22\n        /* \"Solidity Contracts/fullcontract.sol\":964:997  recoverSigner(message, signature) */\n      jump\t// in\n    tag_21:\n        /* \"Solidity Contracts/fullcontract.sol\":964:1006  recoverSigner(message, signature) == owner */\n      0xffffffffffffffffffffffffffffffffffffffff\n      and\n      eq\n        /* \"Solidity Contracts/fullcontract.sol\":956:1007  require(recoverSigner(message, signature) == owner) */\n      tag_23\n      jumpi\n      0x00\n      dup1\n      revert\n    tag_23:\n        /* \"Solidity Contracts/fullcontract.sol\":1026:1036  msg.sender */\n      caller\n        /* \"Solidity Contracts/fullcontract.sol\":1018:1046  payable(msg.sender).transfer */\n      0xffffffffffffffffffffffffffffffffffffffff\n      and\n        /* \"Solidity Contracts/fullcontract.sol\":1018:1054  payable(msg.sender).transfer(amount) */\n      0x08fc\n        /* \"Solidity Contracts/fullcontract.sol\":1047:1053  amount */\n      dup6\n        /* \"Solidity Contracts/fullcontract.sol\":1018:1054  payable(msg.sender).transfer(amount) */\n      swap1\n      dup2\n      iszero\n      mul\n      swap1\n      mload(0x40)\n      0x00\n      mload(0x40)\n      dup1\n      dup4\n      sub\n      dup2\n      dup6\n      dup9\n      dup9\n      call\n      swap4\n      pop\n      pop\n      pop\n      pop\n      iszero\n      dup1\n      iszero\n      tag_25\n      jumpi\n      returndatasize\n      0x00\n      dup1\n      returndatacopy\n      revert(0x00, returndatasize)\n    tag_25:\n      pop\n        /* \"Solidity Contracts/fullcontract.sol\":702:1062  {... */\n      pop\n        /* \"Solidity Contracts/fullcontract.sol\":583:1062  function claimPayment(uint256 amount, uint256 nonce, bytes memory signature)... */\n      pop\n      pop\n      pop\n      jump\t// out\n        /* \"Solidity Contracts/fullcontract.sol\":1131:1321  function shutdown()... */\n    tag_10:\n        /* \"Solidity Contracts/fullcontract.sol\":302:309  _frozen */\n      0x00\n      0x14\n      swap1\n      sload\n      swap1\n      0x0100\n      exp\n      swap1\n      div\n      0xff\n      and\n        /* \"Solidity Contracts/fullcontract.sol\":301:309  !_frozen */\n      iszero\n        /* \"Solidity Contracts/fullcontract.sol\":293:332  require(!_frozen, \"Inactive Contract.\") */\n      tag_27\n      jumpi\n      mload(0x40)\n      0x08c379a000000000000000000000000000000000000000000000000000000000\n      dup2\n      mstore\n      0x04\n      add\n      tag_28\n      swap1\n      tag_14\n      jump\t// in\n    tag_28:\n      mload(0x40)\n      dup1\n      swap2\n      sub\n      swap1\n      revert\n    tag_27:\n        /* \"Solidity Contracts/fullcontract.sol\":1226:1231  owner */\n      0x00\n      dup1\n      sload\n      swap1\n      0x0100\n      exp\n      swap1\n      div\n      0xffffffffffffffffffffffffffffffffffffffff\n      and\n        /* \"Solidity Contracts/fullcontract.sol\":1212:1231  msg.sender == owner */\n      0xffffffffffffffffffffffffffffffffffffffff\n      and\n        /* \"Solidity Contracts/fullcontract.sol\":1212:1222  msg.sender */\n      caller\n        /* \"Solidity Contracts/fullcontract.sol\":1212:1231  msg.sender == owner */\n      0xffffffffffffffffffffffffffffffffffffffff\n      and\n      eq\n        /* \"Solidity Contracts/fullcontract.sol\":1204:1232  require(msg.sender == owner) */\n      tag_30\n      jumpi\n      0x00\n      dup1\n      revert\n    tag_30:\n        /* \"Solidity Contracts/fullcontract.sol\":1243:1251  freeze() */\n      tag_31\n        /* \"Solidity Contracts/fullcontract.sol\":1243:1249  freeze */\n      tag_32\n        /* \"Solidity Contracts/fullcontract.sol\":1243:1251  freeze() */\n      jump\t// in\n    tag_31:\n        /* \"Solidity Contracts/fullcontract.sol\":1270:1280  msg.sender */\n      caller\n        /* \"Solidity Contracts/fullcontract.sol\":1262:1290  payable(msg.sender).transfer */\n      0xffffffffffffffffffffffffffffffffffffffff\n      and\n        /* \"Solidity Contracts/fullcontract.sol\":1262:1313  payable(msg.sender).transfer(address(this).balance) */\n      0x08fc\n        /* \"Solidity Contracts/fullcontract.sol\":1291:1312  address(this).balance */\n      selfbalance\n        /* \"Solidity Contracts/fullcontract.sol\":1262:1313  payable(msg.sender).transfer(address(this).balance) */\n      swap1\n      dup2\n      iszero\n      mul\n      swap1\n      mload(0x40)\n      0x00\n      mload(0x40)\n      dup1\n      dup4\n      sub\n      dup2\n      dup6\n      dup9\n      dup9\n      call\n      swap4\n      pop\n      pop\n      pop\n      pop\n      iszero\n      dup1\n      iszero\n      tag_34\n      jumpi\n      returndatasize\n      0x00\n      dup1\n      returndatacopy\n      revert(0x00, returndatasize)\n    tag_34:\n      pop\n        /* \"Solidity Contracts/fullcontract.sol\":1131:1321  function shutdown()... */\n      jump\t// out\n        /* \"Solidity Contracts/fullcontract.sol\":2188:2347  function prefixed(bytes32 hash) internal pure returns (bytes32) {... */\n    tag_20:\n        /* \"Solidity Contracts/fullcontract.sol\":2243:2250  bytes32 */\n      0x00\n        /* \"Solidity Contracts/fullcontract.sol\":2333:2337  hash */\n      dup2\n        /* \"Solidity Contracts/fullcontract.sol\":2280:2338  abi.encodePacked(\"\\x19Ethereum Signed Message:\\n32\", hash) */\n      add(0x20, mload(0x40))\n      tag_36\n      swap2\n      swap1\n      tag_37\n      jump\t// in\n    tag_36:\n      mload(0x40)\n      0x20\n      dup2\n      dup4\n      sub\n      sub\n      dup2\n      mstore\n      swap1\n      0x40\n      mstore\n        /* \"Solidity Contracts/fullcontract.sol\":2270:2339  keccak256(abi.encodePacked(\"\\x19Ethereum Signed Message:\\n32\", hash)) */\n      dup1\n      mload\n      swap1\n      0x20\n      add\n      keccak256\n        /* \"Solidity Contracts/fullcontract.sol\":2263:2339  return keccak256(abi.encodePacked(\"\\x19Ethereum Signed Message:\\n32\", hash)) */\n      swap1\n      pop\n        /* \"Solidity Contracts/fullcontract.sol\":2188:2347  function prefixed(bytes32 hash) internal pure returns (bytes32) {... */\n      swap2\n      swap1\n      pop\n      jump\t// out\n        /* \"Solidity Contracts/fullcontract.sol\":1874:2113  function recoverSigner(bytes32 message, bytes memory sig)... */\n    tag_22:\n        /* \"Solidity Contracts/fullcontract.sol\":1982:1989  address */\n      0x00\n        /* \"Solidity Contracts/fullcontract.sol\":2008:2015  uint8 v */\n      dup1\n        /* \"Solidity Contracts/fullcontract.sol\":2017:2026  bytes32 r */\n      0x00\n        /* \"Solidity Contracts/fullcontract.sol\":2028:2037  bytes32 s */\n      dup1\n        /* \"Solidity Contracts/fullcontract.sol\":2041:2060  splitSignature(sig) */\n      tag_39\n        /* \"Solidity Contracts/fullcontract.sol\":2056:2059  sig */\n      dup6\n        /* \"Solidity Contracts/fullcontract.sol\":2041:2055  splitSignature */\n      tag_40\n        /* \"Solidity Contracts/fullcontract.sol\":2041:2060  splitSignature(sig) */\n      jump\t// in\n    tag_39:\n        /* \"Solidity Contracts/fullcontract.sol\":2007:2060  (uint8 v, bytes32 r, bytes32 s) = splitSignature(sig) */\n      swap3\n      pop\n      swap3\n      pop\n      swap3\n      pop\n        /* \"Solidity Contracts/fullcontract.sol\":2078:2105  ecrecover(message, v, r, s) */\n      0x01\n        /* \"Solidity Contracts/fullcontract.sol\":2088:2095  message */\n      dup7\n        /* \"Solidity Contracts/fullcontract.sol\":2097:2098  v */\n      dup5\n        /* \"Solidity Contracts/fullcontract.sol\":2100:2101  r */\n      dup5\n        /* \"Solidity Contracts/fullcontract.sol\":2103:2104  s */\n      dup5\n        /* \"Solidity Contracts/fullcontract.sol\":2078:2105  ecrecover(message, v, r, s) */\n      mload(0x40)\n      0x00\n      dup2\n      mstore\n      0x20\n      add\n      0x40\n      mstore\n      mload(0x40)\n      tag_41\n      swap5\n      swap4\n      swap3\n      swap2\n      swap1\n      tag_42\n      jump\t// in\n    tag_41:\n      0x20\n      mload(0x40)\n      0x20\n      dup2\n      sub\n      swap1\n      dup1\n      dup5\n      sub\n      swap1\n      dup6\n      gas\n      staticcall\n      iszero\n      dup1\n      iszero\n      tag_44\n      jumpi\n      returndatasize\n      0x00\n      dup1\n      returndatacopy\n      revert(0x00, returndatasize)\n    tag_44:\n      pop\n      pop\n      pop\n      mload(sub(mload(0x40), 0x20))\n        /* \"Solidity Contracts/fullcontract.sol\":2071:2105  return ecrecover(message, v, r, s) */\n      swap4\n      pop\n      pop\n      pop\n      pop\n        /* \"Solidity Contracts/fullcontract.sol\":1874:2113  function recoverSigner(bytes32 message, bytes memory sig)... */\n      swap3\n      swap2\n      pop\n      pop\n      jump\t// out\n        /* \"Solidity Contracts/fullcontract.sol\":360:458  function freeze() internal {... */\n    tag_32:\n        /* \"Solidity Contracts/fullcontract.sol\":416:421  owner */\n      0x00\n      dup1\n      sload\n      swap1\n      0x0100\n      exp\n      swap1\n      div\n      0xffffffffffffffffffffffffffffffffffffffff\n      and\n        /* \"Solidity Contracts/fullcontract.sol\":402:421  msg.sender == owner */\n      0xffffffffffffffffffffffffffffffffffffffff\n      and\n        /* \"Solidity Contracts/fullcontract.sol\":402:412  msg.sender */\n      caller\n        /* \"Solidity Contracts/fullcontract.sol\":402:421  msg.sender == owner */\n      0xffffffffffffffffffffffffffffffffffffffff\n      and\n      sub\n        /* \"Solidity Contracts/fullcontract.sol\":398:450  if (msg.sender == owner)... */\n      tag_46\n      jumpi\n        /* \"Solidity Contracts/fullcontract.sol\":446:450  true */\n      0x01\n        /* \"Solidity Contracts/fullcontract.sol\":436:443  _frozen */\n      0x00\n      0x14\n        /* \"Solidity Contracts/fullcontract.sol\":436:450  _frozen = true */\n      0x0100\n      exp\n      dup2\n      sload\n      dup2\n      0xff\n      mul\n      not\n      and\n      swap1\n      dup4\n      iszero\n      iszero\n      mul\n      or\n      swap1\n      sstore\n      pop\n        /* \"Solidity Contracts/fullcontract.sol\":398:450  if (msg.sender == owner)... */\n    tag_46:\n        /* \"Solidity Contracts/fullcontract.sol\":360:458  function freeze() internal {... */\n      jump\t// out\n        /* \"Solidity Contracts/fullcontract.sol\":1357:1866  function splitSignature(bytes memory sig)... */\n    tag_40:\n        /* \"Solidity Contracts/fullcontract.sol\":1449:1456  uint8 v */\n      0x00\n        /* \"Solidity Contracts/fullcontract.sol\":1458:1467  bytes32 r */\n      dup1\n        /* \"Solidity Contracts/fullcontract.sol\":1469:1478  bytes32 s */\n      0x00\n        /* \"Solidity Contracts/fullcontract.sol\":1518:1520  65 */\n      0x41\n        /* \"Solidity Contracts/fullcontract.sol\":1504:1507  sig */\n      dup5\n        /* \"Solidity Contracts/fullcontract.sol\":1504:1514  sig.length */\n      mload\n        /* \"Solidity Contracts/fullcontract.sol\":1504:1520  sig.length == 65 */\n      eq\n        /* \"Solidity Contracts/fullcontract.sol\":1496:1521  require(sig.length == 65) */\n      tag_48\n      jumpi\n      0x00\n      dup1\n      revert\n    tag_48:\n        /* \"Solidity Contracts/fullcontract.sol\":1635:1637  32 */\n      0x20\n        /* \"Solidity Contracts/fullcontract.sol\":1630:1633  sig */\n      dup5\n        /* \"Solidity Contracts/fullcontract.sol\":1626:1638  add(sig, 32) */\n      add\n        /* \"Solidity Contracts/fullcontract.sol\":1620:1639  mload(add(sig, 32)) */\n      mload\n        /* \"Solidity Contracts/fullcontract.sol\":1615:1639  r := mload(add(sig, 32)) */\n      swap2\n      pop\n        /* \"Solidity Contracts/fullcontract.sol\":1706:1708  64 */\n      0x40\n        /* \"Solidity Contracts/fullcontract.sol\":1701:1704  sig */\n      dup5\n        /* \"Solidity Contracts/fullcontract.sol\":1697:1709  add(sig, 64) */\n      add\n        /* \"Solidity Contracts/fullcontract.sol\":1691:1710  mload(add(sig, 64)) */\n      mload\n        /* \"Solidity Contracts/fullcontract.sol\":1686:1710  s := mload(add(sig, 64)) */\n      swap1\n      pop\n        /* \"Solidity Contracts/fullcontract.sol\":1814:1816  96 */\n      0x60\n        /* \"Solidity Contracts/fullcontract.sol\":1809:1812  sig */\n      dup5\n        /* \"Solidity Contracts/fullcontract.sol\":1805:1817  add(sig, 96) */\n      add\n        /* \"Solidity Contracts/fullcontract.sol\":1799:1818  mload(add(sig, 96)) */\n      mload\n        /* \"Solidity Contracts/fullcontract.sol\":1796:1797  0 */\n      0x00\n        /* \"Solidity Contracts/fullcontract.sol\":1791:1819  byte(0, mload(add(sig, 96))) */\n      byte\n        /* \"Solidity Contracts/fullcontract.sol\":1786:1819  v := byte(0, mload(add(sig, 96))) */\n      swap3\n      pop\n        /* \"Solidity Contracts/fullcontract.sol\":1357:1866  function splitSignature(bytes memory sig)... */\n      swap2\n      swap4\n      swap1\n      swap3\n      pop\n      jump\t// out\n        /* \"#utility.yul\":7:82   */\n    tag_49:\n        /* \"#utility.yul\":40:46   */\n      0x00\n        /* \"#utility.yul\":73:75   */\n      0x40\n        /* \"#utility.yul\":67:76   */\n      mload\n        /* \"#utility.yul\":57:76   */\n      swap1\n      pop\n        /* \"#utility.yul\":7:82   */\n      swap1\n      jump\t// out\n        /* \"#utility.yul\":88:205   */\n    tag_50:\n        /* \"#utility.yul\":197:198   */\n      0x00\n        /* \"#utility.yul\":194:195   */\n      dup1\n        /* \"#utility.yul\":187:199   */\n      revert\n        /* \"#utility.yul\":211:328   */\n    tag_51:\n        /* \"#utility.yul\":320:321   */\n      0x00\n        /* \"#utility.yul\":317:318   */\n      dup1\n        /* \"#utility.yul\":310:322   */\n      revert\n        /* \"#utility.yul\":334:411   */\n    tag_52:\n        /* \"#utility.yul\":371:378   */\n      0x00\n        /* \"#utility.yul\":400:405   */\n      dup2\n        /* \"#utility.yul\":389:405   */\n      swap1\n      pop\n        /* \"#utility.yul\":334:411   */\n      swap2\n      swap1\n      pop\n      jump\t// out\n        /* \"#utility.yul\":417:539   */\n    tag_53:\n        /* \"#utility.yul\":490:514   */\n      tag_96\n        /* \"#utility.yul\":508:513   */\n      dup2\n        /* \"#utility.yul\":490:514   */\n      tag_52\n      jump\t// in\n    tag_96:\n        /* \"#utility.yul\":483:488   */\n      dup2\n        /* \"#utility.yul\":480:515   */\n      eq\n        /* \"#utility.yul\":470:533   */\n      tag_97\n      jumpi\n        /* \"#utility.yul\":529:530   */\n      0x00\n        /* \"#utility.yul\":526:527   */\n      dup1\n        /* \"#utility.yul\":519:531   */\n      revert\n        /* \"#utility.yul\":470:533   */\n    tag_97:\n        /* \"#utility.yul\":417:539   */\n      pop\n      jump\t// out\n        /* \"#utility.yul\":545:684   */\n    tag_54:\n        /* \"#utility.yul\":591:596   */\n      0x00\n        /* \"#utility.yul\":629:635   */\n      dup2\n        /* \"#utility.yul\":616:636   */\n      calldataload\n        /* \"#utility.yul\":607:636   */\n      swap1\n      pop\n        /* \"#utility.yul\":645:678   */\n      tag_99\n        /* \"#utility.yul\":672:677   */\n      dup2\n        /* \"#utility.yul\":645:678   */\n      tag_53\n      jump\t// in\n    tag_99:\n        /* \"#utility.yul\":545:684   */\n      swap3\n      swap2\n      pop\n      pop\n      jump\t// out\n        /* \"#utility.yul\":690:807   */\n    tag_55:\n        /* \"#utility.yul\":799:800   */\n      0x00\n        /* \"#utility.yul\":796:797   */\n      dup1\n        /* \"#utility.yul\":789:801   */\n      revert\n        /* \"#utility.yul\":813:930   */\n    tag_56:\n        /* \"#utility.yul\":922:923   */\n      0x00\n        /* \"#utility.yul\":919:920   */\n      dup1\n        /* \"#utility.yul\":912:924   */\n      revert\n        /* \"#utility.yul\":936:1038   */\n    tag_57:\n        /* \"#utility.yul\":977:983   */\n      0x00\n        /* \"#utility.yul\":1028:1030   */\n      0x1f\n        /* \"#utility.yul\":1024:1031   */\n      not\n        /* \"#utility.yul\":1019:1021   */\n      0x1f\n        /* \"#utility.yul\":1012:1017   */\n      dup4\n        /* \"#utility.yul\":1008:1022   */\n      add\n        /* \"#utility.yul\":1004:1032   */\n      and\n        /* \"#utility.yul\":994:1032   */\n      swap1\n      pop\n        /* \"#utility.yul\":936:1038   */\n      swap2\n      swap1\n      pop\n      jump\t// out\n        /* \"#utility.yul\":1044:1224   */\n    tag_58:\n        /* \"#utility.yul\":1092:1169   */\n      0x4e487b7100000000000000000000000000000000000000000000000000000000\n        /* \"#utility.yul\":1089:1090   */\n      0x00\n        /* \"#utility.yul\":1082:1170   */\n      mstore\n        /* \"#utility.yul\":1189:1193   */\n      0x41\n        /* \"#utility.yul\":1186:1187   */\n      0x04\n        /* \"#utility.yul\":1179:1194   */\n      mstore\n        /* \"#utility.yul\":1213:1217   */\n      0x24\n        /* \"#utility.yul\":1210:1211   */\n      0x00\n        /* \"#utility.yul\":1203:1218   */\n      revert\n        /* \"#utility.yul\":1230:1511   */\n    tag_59:\n        /* \"#utility.yul\":1313:1340   */\n      tag_105\n        /* \"#utility.yul\":1335:1339   */\n      dup3\n        /* \"#utility.yul\":1313:1340   */\n      tag_57\n      jump\t// in\n    tag_105:\n        /* \"#utility.yul\":1305:1311   */\n      dup2\n        /* \"#utility.yul\":1301:1341   */\n      add\n        /* \"#utility.yul\":1443:1449   */\n      dup2\n        /* \"#utility.yul\":1431:1441   */\n      dup2\n        /* \"#utility.yul\":1428:1450   */\n      lt\n        /* \"#utility.yul\":1407:1425   */\n      0xffffffffffffffff\n        /* \"#utility.yul\":1395:1405   */\n      dup3\n        /* \"#utility.yul\":1392:1426   */\n      gt\n        /* \"#utility.yul\":1389:1451   */\n      or\n        /* \"#utility.yul\":1386:1474   */\n      iszero\n      tag_106\n      jumpi\n        /* \"#utility.yul\":1454:1472   */\n      tag_107\n      tag_58\n      jump\t// in\n    tag_107:\n        /* \"#utility.yul\":1386:1474   */\n    tag_106:\n        /* \"#utility.yul\":1494:1504   */\n      dup1\n        /* \"#utility.yul\":1490:1492   */\n      0x40\n        /* \"#utility.yul\":1483:1505   */\n      mstore\n        /* \"#utility.yul\":1273:1511   */\n      pop\n        /* \"#utility.yul\":1230:1511   */\n      pop\n      pop\n      jump\t// out\n        /* \"#utility.yul\":1517:1646   */\n    tag_60:\n        /* \"#utility.yul\":1551:1557   */\n      0x00\n        /* \"#utility.yul\":1578:1598   */\n      tag_109\n      tag_49\n      jump\t// in\n    tag_109:\n        /* \"#utility.yul\":1568:1598   */\n      swap1\n      pop\n        /* \"#utility.yul\":1607:1640   */\n      tag_110\n        /* \"#utility.yul\":1635:1639   */\n      dup3\n        /* \"#utility.yul\":1627:1633   */\n      dup3\n        /* \"#utility.yul\":1607:1640   */\n      tag_59\n      jump\t// in\n    tag_110:\n        /* \"#utility.yul\":1517:1646   */\n      swap2\n      swap1\n      pop\n      jump\t// out\n        /* \"#utility.yul\":1652:1959   */\n    tag_61:\n        /* \"#utility.yul\":1713:1717   */\n      0x00\n        /* \"#utility.yul\":1803:1821   */\n      0xffffffffffffffff\n        /* \"#utility.yul\":1795:1801   */\n      dup3\n        /* \"#utility.yul\":1792:1822   */\n      gt\n        /* \"#utility.yul\":1789:1845   */\n      iszero\n      tag_112\n      jumpi\n        /* \"#utility.yul\":1825:1843   */\n      tag_113\n      tag_58\n      jump\t// in\n    tag_113:\n        /* \"#utility.yul\":1789:1845   */\n    tag_112:\n        /* \"#utility.yul\":1863:1892   */\n      tag_114\n        /* \"#utility.yul\":1885:1891   */\n      dup3\n        /* \"#utility.yul\":1863:1892   */\n      tag_57\n      jump\t// in\n    tag_114:\n        /* \"#utility.yul\":1855:1892   */\n      swap1\n      pop\n        /* \"#utility.yul\":1947:1951   */\n      0x20\n        /* \"#utility.yul\":1941:1945   */\n      dup2\n        /* \"#utility.yul\":1937:1952   */\n      add\n        /* \"#utility.yul\":1929:1952   */\n      swap1\n      pop\n        /* \"#utility.yul\":1652:1959   */\n      swap2\n      swap1\n      pop\n      jump\t// out\n        /* \"#utility.yul\":1965:2113   */\n    tag_62:\n        /* \"#utility.yul\":2063:2069   */\n      dup3\n        /* \"#utility.yul\":2058:2061   */\n      dup2\n        /* \"#utility.yul\":2053:2056   */\n      dup4\n        /* \"#utility.yul\":2040:2070   */\n      calldatacopy\n        /* \"#utility.yul\":2104:2105   */\n      0x00\n        /* \"#utility.yul\":2095:2101   */\n      dup4\n        /* \"#utility.yul\":2090:2093   */\n      dup4\n        /* \"#utility.yul\":2086:2102   */\n      add\n        /* \"#utility.yul\":2079:2106   */\n      mstore\n        /* \"#utility.yul\":1965:2113   */\n      pop\n      pop\n      pop\n      jump\t// out\n        /* \"#utility.yul\":2119:2542   */\n    tag_63:\n        /* \"#utility.yul\":2196:2201   */\n      0x00\n        /* \"#utility.yul\":2221:2286   */\n      tag_117\n        /* \"#utility.yul\":2237:2285   */\n      tag_118\n        /* \"#utility.yul\":2278:2284   */\n      dup5\n        /* \"#utility.yul\":2237:2285   */\n      tag_61\n      jump\t// in\n    tag_118:\n        /* \"#utility.yul\":2221:2286   */\n      tag_60\n      jump\t// in\n    tag_117:\n        /* \"#utility.yul\":2212:2286   */\n      swap1\n      pop\n        /* \"#utility.yul\":2309:2315   */\n      dup3\n        /* \"#utility.yul\":2302:2307   */\n      dup2\n        /* \"#utility.yul\":2295:2316   */\n      mstore\n        /* \"#utility.yul\":2347:2351   */\n      0x20\n        /* \"#utility.yul\":2340:2345   */\n      dup2\n        /* \"#utility.yul\":2336:2352   */\n      add\n        /* \"#utility.yul\":2385:2388   */\n      dup5\n        /* \"#utility.yul\":2376:2382   */\n      dup5\n        /* \"#utility.yul\":2371:2374   */\n      dup5\n        /* \"#utility.yul\":2367:2383   */\n      add\n        /* \"#utility.yul\":2364:2389   */\n      gt\n        /* \"#utility.yul\":2361:2473   */\n      iszero\n      tag_119\n      jumpi\n        /* \"#utility.yul\":2392:2471   */\n      tag_120\n      tag_56\n      jump\t// in\n    tag_120:\n        /* \"#utility.yul\":2361:2473   */\n    tag_119:\n        /* \"#utility.yul\":2482:2536   */\n      tag_121\n        /* \"#utility.yul\":2529:2535   */\n      dup5\n        /* \"#utility.yul\":2524:2527   */\n      dup3\n        /* \"#utility.yul\":2519:2522   */\n      dup6\n        /* \"#utility.yul\":2482:2536   */\n      tag_62\n      jump\t// in\n    tag_121:\n        /* \"#utility.yul\":2202:2542   */\n      pop\n        /* \"#utility.yul\":2119:2542   */\n      swap4\n      swap3\n      pop\n      pop\n      pop\n      jump\t// out\n        /* \"#utility.yul\":2561:2899   */\n    tag_64:\n        /* \"#utility.yul\":2616:2621   */\n      0x00\n        /* \"#utility.yul\":2665:2668   */\n      dup3\n        /* \"#utility.yul\":2658:2662   */\n      0x1f\n        /* \"#utility.yul\":2650:2656   */\n      dup4\n        /* \"#utility.yul\":2646:2663   */\n      add\n        /* \"#utility.yul\":2642:2669   */\n      slt\n        /* \"#utility.yul\":2632:2754   */\n      tag_123\n      jumpi\n        /* \"#utility.yul\":2673:2752   */\n      tag_124\n      tag_55\n      jump\t// in\n    tag_124:\n        /* \"#utility.yul\":2632:2754   */\n    tag_123:\n        /* \"#utility.yul\":2790:2796   */\n      dup2\n        /* \"#utility.yul\":2777:2797   */\n      calldataload\n        /* \"#utility.yul\":2815:2893   */\n      tag_125\n        /* \"#utility.yul\":2889:2892   */\n      dup5\n        /* \"#utility.yul\":2881:2887   */\n      dup3\n        /* \"#utility.yul\":2874:2878   */\n      0x20\n        /* \"#utility.yul\":2866:2872   */\n      dup7\n        /* \"#utility.yul\":2862:2879   */\n      add\n        /* \"#utility.yul\":2815:2893   */\n      tag_63\n      jump\t// in\n    tag_125:\n        /* \"#utility.yul\":2806:2893   */\n      swap2\n      pop\n        /* \"#utility.yul\":2622:2899   */\n      pop\n        /* \"#utility.yul\":2561:2899   */\n      swap3\n      swap2\n      pop\n      pop\n      jump\t// out\n        /* \"#utility.yul\":2905:3702   */\n    tag_7:\n        /* \"#utility.yul\":2991:2997   */\n      0x00\n        /* \"#utility.yul\":2999:3005   */\n      dup1\n        /* \"#utility.yul\":3007:3013   */\n      0x00\n        /* \"#utility.yul\":3056:3058   */\n      0x60\n        /* \"#utility.yul\":3044:3053   */\n      dup5\n        /* \"#utility.yul\":3035:3042   */\n      dup7\n        /* \"#utility.yul\":3031:3054   */\n      sub\n        /* \"#utility.yul\":3027:3059   */\n      slt\n        /* \"#utility.yul\":3024:3143   */\n      iszero\n      tag_127\n      jumpi\n        /* \"#utility.yul\":3062:3141   */\n      tag_128\n      tag_50\n      jump\t// in\n    tag_128:\n        /* \"#utility.yul\":3024:3143   */\n    tag_127:\n        /* \"#utility.yul\":3182:3183   */\n      0x00\n        /* \"#utility.yul\":3207:3260   */\n      tag_129\n        /* \"#utility.yul\":3252:3259   */\n      dup7\n        /* \"#utility.yul\":3243:3249   */\n      dup3\n        /* \"#utility.yul\":3232:3241   */\n      dup8\n        /* \"#utility.yul\":3228:3250   */\n      add\n        /* \"#utility.yul\":3207:3260   */\n      tag_54\n      jump\t// in\n    tag_129:\n        /* \"#utility.yul\":3197:3260   */\n      swap4\n      pop\n        /* \"#utility.yul\":3153:3270   */\n      pop\n        /* \"#utility.yul\":3309:3311   */\n      0x20\n        /* \"#utility.yul\":3335:3388   */\n      tag_130\n        /* \"#utility.yul\":3380:3387   */\n      dup7\n        /* \"#utility.yul\":3371:3377   */\n      dup3\n        /* \"#utility.yul\":3360:3369   */\n      dup8\n        /* \"#utility.yul\":3356:3378   */\n      add\n        /* \"#utility.yul\":3335:3388   */\n      tag_54\n      jump\t// in\n    tag_130:\n        /* \"#utility.yul\":3325:3388   */\n      swap3\n      pop\n        /* \"#utility.yul\":3280:3398   */\n      pop\n        /* \"#utility.yul\":3465:3467   */\n      0x40\n        /* \"#utility.yul\":3454:3463   */\n      dup5\n        /* \"#utility.yul\":3450:3468   */\n      add\n        /* \"#utility.yul\":3437:3469   */\n      calldataload\n        /* \"#utility.yul\":3496:3514   */\n      0xffffffffffffffff\n        /* \"#utility.yul\":3488:3494   */\n      dup2\n        /* \"#utility.yul\":3485:3515   */\n      gt\n        /* \"#utility.yul\":3482:3599   */\n      iszero\n      tag_131\n      jumpi\n        /* \"#utility.yul\":3518:3597   */\n      tag_132\n      tag_51\n      jump\t// in\n    tag_132:\n        /* \"#utility.yul\":3482:3599   */\n    tag_131:\n        /* \"#utility.yul\":3623:3685   */\n      tag_133\n        /* \"#utility.yul\":3677:3684   */\n      dup7\n        /* \"#utility.yul\":3668:3674   */\n      dup3\n        /* \"#utility.yul\":3657:3666   */\n      dup8\n        /* \"#utility.yul\":3653:3675   */\n      add\n        /* \"#utility.yul\":3623:3685   */\n      tag_64\n      jump\t// in\n    tag_133:\n        /* \"#utility.yul\":3613:3685   */\n      swap2\n      pop\n        /* \"#utility.yul\":3408:3695   */\n      pop\n        /* \"#utility.yul\":2905:3702   */\n      swap3\n      pop\n      swap3\n      pop\n      swap3\n      jump\t// out\n        /* \"#utility.yul\":3708:3877   */\n    tag_65:\n        /* \"#utility.yul\":3792:3803   */\n      0x00\n        /* \"#utility.yul\":3826:3832   */\n      dup3\n        /* \"#utility.yul\":3821:3824   */\n      dup3\n        /* \"#utility.yul\":3814:3833   */\n      mstore\n        /* \"#utility.yul\":3866:3870   */\n      0x20\n        /* \"#utility.yul\":3861:3864   */\n      dup3\n        /* \"#utility.yul\":3857:3871   */\n      add\n        /* \"#utility.yul\":3842:3871   */\n      swap1\n      pop\n        /* \"#utility.yul\":3708:3877   */\n      swap3\n      swap2\n      pop\n      pop\n      jump\t// out\n        /* \"#utility.yul\":3883:4051   */\n    tag_66:\n        /* \"#utility.yul\":4023:4043   */\n      0x496e61637469766520436f6e74726163742e0000000000000000000000000000\n        /* \"#utility.yul\":4019:4020   */\n      0x00\n        /* \"#utility.yul\":4011:4017   */\n      dup3\n        /* \"#utility.yul\":4007:4021   */\n      add\n        /* \"#utility.yul\":4000:4044   */\n      mstore\n        /* \"#utility.yul\":3883:4051   */\n      pop\n      jump\t// out\n        /* \"#utility.yul\":4057:4423   */\n    tag_67:\n        /* \"#utility.yul\":4199:4202   */\n      0x00\n        /* \"#utility.yul\":4220:4287   */\n      tag_137\n        /* \"#utility.yul\":4284:4286   */\n      0x12\n        /* \"#utility.yul\":4279:4282   */\n      dup4\n        /* \"#utility.yul\":4220:4287   */\n      tag_65\n      jump\t// in\n    tag_137:\n        /* \"#utility.yul\":4213:4287   */\n      swap2\n      pop\n        /* \"#utility.yul\":4296:4389   */\n      tag_138\n        /* \"#utility.yul\":4385:4388   */\n      dup3\n        /* \"#utility.yul\":4296:4389   */\n      tag_66\n      jump\t// in\n    tag_138:\n        /* \"#utility.yul\":4414:4416   */\n      0x20\n        /* \"#utility.yul\":4409:4412   */\n      dup3\n        /* \"#utility.yul\":4405:4417   */\n      add\n        /* \"#utility.yul\":4398:4417   */\n      swap1\n      pop\n        /* \"#utility.yul\":4057:4423   */\n      swap2\n      swap1\n      pop\n      jump\t// out\n        /* \"#utility.yul\":4429:4848   */\n    tag_14:\n        /* \"#utility.yul\":4595:4599   */\n      0x00\n        /* \"#utility.yul\":4633:4635   */\n      0x20\n        /* \"#utility.yul\":4622:4631   */\n      dup3\n        /* \"#utility.yul\":4618:4636   */\n      add\n        /* \"#utility.yul\":4610:4636   */\n      swap1\n      pop\n        /* \"#utility.yul\":4682:4691   */\n      dup2\n        /* \"#utility.yul\":4676:4680   */\n      dup2\n        /* \"#utility.yul\":4672:4692   */\n      sub\n        /* \"#utility.yul\":4668:4669   */\n      0x00\n        /* \"#utility.yul\":4657:4666   */\n      dup4\n        /* \"#utility.yul\":4653:4670   */\n      add\n        /* \"#utility.yul\":4646:4693   */\n      mstore\n        /* \"#utility.yul\":4710:4841   */\n      tag_140\n        /* \"#utility.yul\":4836:4840   */\n      dup2\n        /* \"#utility.yul\":4710:4841   */\n      tag_67\n      jump\t// in\n    tag_140:\n        /* \"#utility.yul\":4702:4841   */\n      swap1\n      pop\n        /* \"#utility.yul\":4429:4848   */\n      swap2\n      swap1\n      pop\n      jump\t// out\n        /* \"#utility.yul\":4854:4980   */\n    tag_68:\n        /* \"#utility.yul\":4891:4898   */\n      0x00\n        /* \"#utility.yul\":4931:4973   */\n      0xffffffffffffffffffffffffffffffffffffffff\n        /* \"#utility.yul\":4924:4929   */\n      dup3\n        /* \"#utility.yul\":4920:4974   */\n      and\n        /* \"#utility.yul\":4909:4974   */\n      swap1\n      pop\n        /* \"#utility.yul\":4854:4980   */\n      swap2\n      swap1\n      pop\n      jump\t// out\n        /* \"#utility.yul\":4986:5082   */\n    tag_69:\n        /* \"#utility.yul\":5023:5030   */\n      0x00\n        /* \"#utility.yul\":5052:5076   */\n      tag_143\n        /* \"#utility.yul\":5070:5075   */\n      dup3\n        /* \"#utility.yul\":5052:5076   */\n      tag_68\n      jump\t// in\n    tag_143:\n        /* \"#utility.yul\":5041:5076   */\n      swap1\n      pop\n        /* \"#utility.yul\":4986:5082   */\n      swap2\n      swap1\n      pop\n      jump\t// out\n        /* \"#utility.yul\":5088:5182   */\n    tag_70:\n        /* \"#utility.yul\":5121:5129   */\n      0x00\n        /* \"#utility.yul\":5169:5174   */\n      dup2\n        /* \"#utility.yul\":5165:5167   */\n      0x60\n        /* \"#utility.yul\":5161:5175   */\n      shl\n        /* \"#utility.yul\":5140:5175   */\n      swap1\n      pop\n        /* \"#utility.yul\":5088:5182   */\n      swap2\n      swap1\n      pop\n      jump\t// out\n        /* \"#utility.yul\":5188:5282   */\n    tag_71:\n        /* \"#utility.yul\":5227:5234   */\n      0x00\n        /* \"#utility.yul\":5256:5276   */\n      tag_146\n        /* \"#utility.yul\":5270:5275   */\n      dup3\n        /* \"#utility.yul\":5256:5276   */\n      tag_70\n      jump\t// in\n    tag_146:\n        /* \"#utility.yul\":5245:5276   */\n      swap1\n      pop\n        /* \"#utility.yul\":5188:5282   */\n      swap2\n      swap1\n      pop\n      jump\t// out\n        /* \"#utility.yul\":5288:5388   */\n    tag_72:\n        /* \"#utility.yul\":5327:5334   */\n      0x00\n        /* \"#utility.yul\":5356:5382   */\n      tag_148\n        /* \"#utility.yul\":5376:5381   */\n      dup3\n        /* \"#utility.yul\":5356:5382   */\n      tag_71\n      jump\t// in\n    tag_148:\n        /* \"#utility.yul\":5345:5382   */\n      swap1\n      pop\n        /* \"#utility.yul\":5288:5388   */\n      swap2\n      swap1\n      pop\n      jump\t// out\n        /* \"#utility.yul\":5394:5551   */\n    tag_73:\n        /* \"#utility.yul\":5499:5544   */\n      tag_150\n        /* \"#utility.yul\":5519:5543   */\n      tag_151\n        /* \"#utility.yul\":5537:5542   */\n      dup3\n        /* \"#utility.yul\":5519:5543   */\n      tag_69\n      jump\t// in\n    tag_151:\n        /* \"#utility.yul\":5499:5544   */\n      tag_72\n      jump\t// in\n    tag_150:\n        /* \"#utility.yul\":5494:5497   */\n      dup3\n        /* \"#utility.yul\":5487:5545   */\n      mstore\n        /* \"#utility.yul\":5394:5551   */\n      pop\n      pop\n      jump\t// out\n        /* \"#utility.yul\":5557:5636   */\n    tag_74:\n        /* \"#utility.yul\":5596:5603   */\n      0x00\n        /* \"#utility.yul\":5625:5630   */\n      dup2\n        /* \"#utility.yul\":5614:5630   */\n      swap1\n      pop\n        /* \"#utility.yul\":5557:5636   */\n      swap2\n      swap1\n      pop\n      jump\t// out\n        /* \"#utility.yul\":5642:5799   */\n    tag_75:\n        /* \"#utility.yul\":5747:5792   */\n      tag_154\n        /* \"#utility.yul\":5767:5791   */\n      tag_155\n        /* \"#utility.yul\":5785:5790   */\n      dup3\n        /* \"#utility.yul\":5767:5791   */\n      tag_52\n      jump\t// in\n    tag_155:\n        /* \"#utility.yul\":5747:5792   */\n      tag_74\n      jump\t// in\n    tag_154:\n        /* \"#utility.yul\":5742:5745   */\n      dup3\n        /* \"#utility.yul\":5735:5793   */\n      mstore\n        /* \"#utility.yul\":5642:5799   */\n      pop\n      pop\n      jump\t// out\n        /* \"#utility.yul\":5805:5865   */\n    tag_76:\n        /* \"#utility.yul\":5833:5836   */\n      0x00\n        /* \"#utility.yul\":5854:5859   */\n      dup2\n        /* \"#utility.yul\":5847:5859   */\n      swap1\n      pop\n        /* \"#utility.yul\":5805:5865   */\n      swap2\n      swap1\n      pop\n      jump\t// out\n        /* \"#utility.yul\":5871:6013   */\n    tag_77:\n        /* \"#utility.yul\":5921:5930   */\n      0x00\n        /* \"#utility.yul\":5954:6007   */\n      tag_158\n        /* \"#utility.yul\":5972:6006   */\n      tag_159\n        /* \"#utility.yul\":5981:6005   */\n      tag_160\n        /* \"#utility.yul\":5999:6004   */\n      dup5\n        /* \"#utility.yul\":5981:6005   */\n      tag_68\n      jump\t// in\n    tag_160:\n        /* \"#utility.yul\":5972:6006   */\n      tag_76\n      jump\t// in\n    tag_159:\n        /* \"#utility.yul\":5954:6007   */\n      tag_68\n      jump\t// in\n    tag_158:\n        /* \"#utility.yul\":5941:6007   */\n      swap1\n      pop\n        /* \"#utility.yul\":5871:6013   */\n      swap2\n      swap1\n      pop\n      jump\t// out\n        /* \"#utility.yul\":6019:6145   */\n    tag_78:\n        /* \"#utility.yul\":6069:6078   */\n      0x00\n        /* \"#utility.yul\":6102:6139   */\n      tag_162\n        /* \"#utility.yul\":6133:6138   */\n      dup3\n        /* \"#utility.yul\":6102:6139   */\n      tag_77\n      jump\t// in\n    tag_162:\n        /* \"#utility.yul\":6089:6139   */\n      swap1\n      pop\n        /* \"#utility.yul\":6019:6145   */\n      swap2\n      swap1\n      pop\n      jump\t// out\n        /* \"#utility.yul\":6151:6297   */\n    tag_79:\n        /* \"#utility.yul\":6221:6230   */\n      0x00\n        /* \"#utility.yul\":6254:6291   */\n      tag_164\n        /* \"#utility.yul\":6285:6290   */\n      dup3\n        /* \"#utility.yul\":6254:6291   */\n      tag_78\n      jump\t// in\n    tag_164:\n        /* \"#utility.yul\":6241:6291   */\n      swap1\n      pop\n        /* \"#utility.yul\":6151:6297   */\n      swap2\n      swap1\n      pop\n      jump\t// out\n        /* \"#utility.yul\":6303:6513   */\n    tag_80:\n        /* \"#utility.yul\":6428:6506   */\n      tag_166\n        /* \"#utility.yul\":6448:6505   */\n      tag_167\n        /* \"#utility.yul\":6499:6504   */\n      dup3\n        /* \"#utility.yul\":6448:6505   */\n      tag_79\n      jump\t// in\n    tag_167:\n        /* \"#utility.yul\":6428:6506   */\n      tag_72\n      jump\t// in\n    tag_166:\n        /* \"#utility.yul\":6423:6426   */\n      dup3\n        /* \"#utility.yul\":6416:6507   */\n      mstore\n        /* \"#utility.yul\":6303:6513   */\n      pop\n      pop\n      jump\t// out\n        /* \"#utility.yul\":6519:7238   */\n    tag_19:\n        /* \"#utility.yul\":6735:6738   */\n      0x00\n        /* \"#utility.yul\":6750:6825   */\n      tag_169\n        /* \"#utility.yul\":6821:6824   */\n      dup3\n        /* \"#utility.yul\":6812:6818   */\n      dup8\n        /* \"#utility.yul\":6750:6825   */\n      tag_73\n      jump\t// in\n    tag_169:\n        /* \"#utility.yul\":6850:6852   */\n      0x14\n        /* \"#utility.yul\":6845:6848   */\n      dup3\n        /* \"#utility.yul\":6841:6853   */\n      add\n        /* \"#utility.yul\":6834:6853   */\n      swap2\n      pop\n        /* \"#utility.yul\":6863:6938   */\n      tag_170\n        /* \"#utility.yul\":6934:6937   */\n      dup3\n        /* \"#utility.yul\":6925:6931   */\n      dup7\n        /* \"#utility.yul\":6863:6938   */\n      tag_75\n      jump\t// in\n    tag_170:\n        /* \"#utility.yul\":6963:6965   */\n      0x20\n        /* \"#utility.yul\":6958:6961   */\n      dup3\n        /* \"#utility.yul\":6954:6966   */\n      add\n        /* \"#utility.yul\":6947:6966   */\n      swap2\n      pop\n        /* \"#utility.yul\":6976:7051   */\n      tag_171\n        /* \"#utility.yul\":7047:7050   */\n      dup3\n        /* \"#utility.yul\":7038:7044   */\n      dup6\n        /* \"#utility.yul\":6976:7051   */\n      tag_75\n      jump\t// in\n    tag_171:\n        /* \"#utility.yul\":7076:7078   */\n      0x20\n        /* \"#utility.yul\":7071:7074   */\n      dup3\n        /* \"#utility.yul\":7067:7079   */\n      add\n        /* \"#utility.yul\":7060:7079   */\n      swap2\n      pop\n        /* \"#utility.yul\":7089:7184   */\n      tag_172\n        /* \"#utility.yul\":7180:7183   */\n      dup3\n        /* \"#utility.yul\":7171:7177   */\n      dup5\n        /* \"#utility.yul\":7089:7184   */\n      tag_80\n      jump\t// in\n    tag_172:\n        /* \"#utility.yul\":7209:7211   */\n      0x14\n        /* \"#utility.yul\":7204:7207   */\n      dup3\n        /* \"#utility.yul\":7200:7212   */\n      add\n        /* \"#utility.yul\":7193:7212   */\n      swap2\n      pop\n        /* \"#utility.yul\":7229:7232   */\n      dup2\n        /* \"#utility.yul\":7222:7232   */\n      swap1\n      pop\n        /* \"#utility.yul\":6519:7238   */\n      swap6\n      swap5\n      pop\n      pop\n      pop\n      pop\n      pop\n      jump\t// out\n        /* \"#utility.yul\":7244:7392   */\n    tag_81:\n        /* \"#utility.yul\":7346:7357   */\n      0x00\n        /* \"#utility.yul\":7383:7386   */\n      dup2\n        /* \"#utility.yul\":7368:7386   */\n      swap1\n      pop\n        /* \"#utility.yul\":7244:7392   */\n      swap3\n      swap2\n      pop\n      pop\n      jump\t// out\n        /* \"#utility.yul\":7398:7612   */\n    tag_82:\n        /* \"#utility.yul\":7538:7604   */\n      0x19457468657265756d205369676e6564204d6573736167653a0a333200000000\n        /* \"#utility.yul\":7534:7535   */\n      0x00\n        /* \"#utility.yul\":7526:7532   */\n      dup3\n        /* \"#utility.yul\":7522:7536   */\n      add\n        /* \"#utility.yul\":7515:7605   */\n      mstore\n        /* \"#utility.yul\":7398:7612   */\n      pop\n      jump\t// out\n        /* \"#utility.yul\":7618:8020   */\n    tag_83:\n        /* \"#utility.yul\":7778:7781   */\n      0x00\n        /* \"#utility.yul\":7799:7884   */\n      tag_176\n        /* \"#utility.yul\":7881:7883   */\n      0x1c\n        /* \"#utility.yul\":7876:7879   */\n      dup4\n        /* \"#utility.yul\":7799:7884   */\n      tag_81\n      jump\t// in\n    tag_176:\n        /* \"#utility.yul\":7792:7884   */\n      swap2\n      pop\n        /* \"#utility.yul\":7893:7986   */\n      tag_177\n        /* \"#utility.yul\":7982:7985   */\n      dup3\n        /* \"#utility.yul\":7893:7986   */\n      tag_82\n      jump\t// in\n    tag_177:\n        /* \"#utility.yul\":8011:8013   */\n      0x1c\n        /* \"#utility.yul\":8006:8009   */\n      dup3\n        /* \"#utility.yul\":8002:8014   */\n      add\n        /* \"#utility.yul\":7995:8014   */\n      swap1\n      pop\n        /* \"#utility.yul\":7618:8020   */\n      swap2\n      swap1\n      pop\n      jump\t// out\n        /* \"#utility.yul\":8026:8103   */\n    tag_84:\n        /* \"#utility.yul\":8063:8070   */\n      0x00\n        /* \"#utility.yul\":8092:8097   */\n      dup2\n        /* \"#utility.yul\":8081:8097   */\n      swap1\n      pop\n        /* \"#utility.yul\":8026:8103   */\n      swap2\n      swap1\n      pop\n      jump\t// out\n        /* \"#utility.yul\":8109:8188   */\n    tag_85:\n        /* \"#utility.yul\":8148:8155   */\n      0x00\n        /* \"#utility.yul\":8177:8182   */\n      dup2\n        /* \"#utility.yul\":8166:8182   */\n      swap1\n      pop\n        /* \"#utility.yul\":8109:8188   */\n      swap2\n      swap1\n      pop\n      jump\t// out\n        /* \"#utility.yul\":8194:8351   */\n    tag_86:\n        /* \"#utility.yul\":8299:8344   */\n      tag_181\n        /* \"#utility.yul\":8319:8343   */\n      tag_182\n        /* \"#utility.yul\":8337:8342   */\n      dup3\n        /* \"#utility.yul\":8319:8343   */\n      tag_84\n      jump\t// in\n    tag_182:\n        /* \"#utility.yul\":8299:8344   */\n      tag_85\n      jump\t// in\n    tag_181:\n        /* \"#utility.yul\":8294:8297   */\n      dup3\n        /* \"#utility.yul\":8287:8345   */\n      mstore\n        /* \"#utility.yul\":8194:8351   */\n      pop\n      pop\n      jump\t// out\n        /* \"#utility.yul\":8357:8879   */\n    tag_37:\n        /* \"#utility.yul\":8570:8573   */\n      0x00\n        /* \"#utility.yul\":8592:8740   */\n      tag_184\n        /* \"#utility.yul\":8736:8739   */\n      dup3\n        /* \"#utility.yul\":8592:8740   */\n      tag_83\n      jump\t// in\n    tag_184:\n        /* \"#utility.yul\":8585:8740   */\n      swap2\n      pop\n        /* \"#utility.yul\":8750:8825   */\n      tag_185\n        /* \"#utility.yul\":8821:8824   */\n      dup3\n        /* \"#utility.yul\":8812:8818   */\n      dup5\n        /* \"#utility.yul\":8750:8825   */\n      tag_86\n      jump\t// in\n    tag_185:\n        /* \"#utility.yul\":8850:8852   */\n      0x20\n        /* \"#utility.yul\":8845:8848   */\n      dup3\n        /* \"#utility.yul\":8841:8853   */\n      add\n        /* \"#utility.yul\":8834:8853   */\n      swap2\n      pop\n        /* \"#utility.yul\":8870:8873   */\n      dup2\n        /* \"#utility.yul\":8863:8873   */\n      swap1\n      pop\n        /* \"#utility.yul\":8357:8879   */\n      swap3\n      swap2\n      pop\n      pop\n      jump\t// out\n        /* \"#utility.yul\":8885:9003   */\n    tag_87:\n        /* \"#utility.yul\":8972:8996   */\n      tag_187\n        /* \"#utility.yul\":8990:8995   */\n      dup2\n        /* \"#utility.yul\":8972:8996   */\n      tag_84\n      jump\t// in\n    tag_187:\n        /* \"#utility.yul\":8967:8970   */\n      dup3\n        /* \"#utility.yul\":8960:8997   */\n      mstore\n        /* \"#utility.yul\":8885:9003   */\n      pop\n      pop\n      jump\t// out\n        /* \"#utility.yul\":9009:9095   */\n    tag_88:\n        /* \"#utility.yul\":9044:9051   */\n      0x00\n        /* \"#utility.yul\":9084:9088   */\n      0xff\n        /* \"#utility.yul\":9077:9082   */\n      dup3\n        /* \"#utility.yul\":9073:9089   */\n      and\n        /* \"#utility.yul\":9062:9089   */\n      swap1\n      pop\n        /* \"#utility.yul\":9009:9095   */\n      swap2\n      swap1\n      pop\n      jump\t// out\n        /* \"#utility.yul\":9101:9213   */\n    tag_89:\n        /* \"#utility.yul\":9184:9206   */\n      tag_190\n        /* \"#utility.yul\":9200:9205   */\n      dup2\n        /* \"#utility.yul\":9184:9206   */\n      tag_88\n      jump\t// in\n    tag_190:\n        /* \"#utility.yul\":9179:9182   */\n      dup3\n        /* \"#utility.yul\":9172:9207   */\n      mstore\n        /* \"#utility.yul\":9101:9213   */\n      pop\n      pop\n      jump\t// out\n        /* \"#utility.yul\":9219:9764   */\n    tag_42:\n        /* \"#utility.yul\":9392:9396   */\n      0x00\n        /* \"#utility.yul\":9430:9433   */\n      0x80\n        /* \"#utility.yul\":9419:9428   */\n      dup3\n        /* \"#utility.yul\":9415:9434   */\n      add\n        /* \"#utility.yul\":9407:9434   */\n      swap1\n      pop\n        /* \"#utility.yul\":9444:9515   */\n      tag_192\n        /* \"#utility.yul\":9512:9513   */\n      0x00\n        /* \"#utility.yul\":9501:9510   */\n      dup4\n        /* \"#utility.yul\":9497:9514   */\n      add\n        /* \"#utility.yul\":9488:9494   */\n      dup8\n        /* \"#utility.yul\":9444:9515   */\n      tag_87\n      jump\t// in\n    tag_192:\n        /* \"#utility.yul\":9525:9593   */\n      tag_193\n        /* \"#utility.yul\":9589:9591   */\n      0x20\n        /* \"#utility.yul\":9578:9587   */\n      dup4\n        /* \"#utility.yul\":9574:9592   */\n      add\n        /* \"#utility.yul\":9565:9571   */\n      dup7\n        /* \"#utility.yul\":9525:9593   */\n      tag_89\n      jump\t// in\n    tag_193:\n        /* \"#utility.yul\":9603:9675   */\n      tag_194\n        /* \"#utility.yul\":9671:9673   */\n      0x40\n        /* \"#utility.yul\":9660:9669   */\n      dup4\n        /* \"#utility.yul\":9656:9674   */\n      add\n        /* \"#utility.yul\":9647:9653   */\n      dup6\n        /* \"#utility.yul\":9603:9675   */\n      tag_87\n      jump\t// in\n    tag_194:\n        /* \"#utility.yul\":9685:9757   */\n      tag_195\n        /* \"#utility.yul\":9753:9755   */\n      0x60\n        /* \"#utility.yul\":9742:9751   */\n      dup4\n        /* \"#utility.yul\":9738:9756   */\n      add\n        /* \"#utility.yul\":9729:9735   */\n      dup5\n        /* \"#utility.yul\":9685:9757   */\n      tag_87\n      jump\t// in\n    tag_195:\n        /* \"#utility.yul\":9219:9764   */\n      swap6\n      swap5\n      pop\n      pop\n      pop\n      pop\n      pop\n      jump\t// out\n\n    auxdata: 0xa2646970667358221220d19228159f602caf9f090a20c209eb4a1c39e68f254ce9b1df22d000ce79404e64736f6c634300081a0033\n}\n",
				"bytecode": {
					"linkReferences": {},
					"object": "60806040525f8060146101000a81548160ff021916908315150217905550335f806101000a81548173ffffffffffffffffffffffffffffffffffffffff021916908373ffffffffffffffffffffffffffffffffffffffff1602179055506108f4806100695f395ff3fe608060405234801561000f575f80fd5b5060043610610034575f3560e01c8063a90ae88714610038578063fc0e74d114610054575b5f80fd5b610052600480360381019061004d9190610586565b61005e565b005b61005c6101dd565b005b5f60149054906101000a900460ff16156100ad576040517f08c379a00000000000000000000000000000000000000000000000000000000081526004016100a49061064c565b60405180910390fd5b60015f8381526020019081526020015f205f9054906101000a900460ff16156100d4575f80fd5b6001805f8481526020019081526020015f205f6101000a81548160ff0219169083151502179055505f610132338585306040516020016101179493929190610762565b604051602081830303815290604052805190602001206102d0565b90505f8054906101000a900473ffffffffffffffffffffffffffffffffffffffff1673ffffffffffffffffffffffffffffffffffffffff1661017482846102ff565b73ffffffffffffffffffffffffffffffffffffffff1614610193575f80fd5b3373ffffffffffffffffffffffffffffffffffffffff166108fc8590811502906040515f60405180830381858888f193505050501580156101d6573d5f803e3d5ffd5b5050505050565b5f60149054906101000a900460ff161561022c576040517f08c379a00000000000000000000000000000000000000000000000000000000081526004016102239061064c565b60405180910390fd5b5f8054906101000a900473ffffffffffffffffffffffffffffffffffffffff1673ffffffffffffffffffffffffffffffffffffffff163373ffffffffffffffffffffffffffffffffffffffff1614610282575f80fd5b61028a610369565b3373ffffffffffffffffffffffffffffffffffffffff166108fc4790811502906040515f60405180830381858888f193505050501580156102cd573d5f803e3d5ffd5b50565b5f816040516020016102e2919061082c565b604051602081830303815290604052805190602001209050919050565b5f805f8061030c856103d8565b9250925092506001868484846040515f8152602001604052604051610334949392919061087b565b6020604051602081039080840390855afa158015610354573d5f803e3d5ffd5b50505060206040510351935050505092915050565b5f8054906101000a900473ffffffffffffffffffffffffffffffffffffffff1673ffffffffffffffffffffffffffffffffffffffff163373ffffffffffffffffffffffffffffffffffffffff16036103d65760015f60146101000a81548160ff0219169083151502179055505b565b5f805f60418451146103e8575f80fd5b602084015191506040840151905060608401515f1a92509193909250565b5f604051905090565b5f80fd5b5f80fd5b5f819050919050565b61042981610417565b8114610433575f80fd5b50565b5f8135905061044481610420565b92915050565b5f80fd5b5f80fd5b5f601f19601f8301169050919050565b7f4e487b71000000000000000000000000000000000000000000000000000000005f52604160045260245ffd5b61049882610452565b810181811067ffffffffffffffff821117156104b7576104b6610462565b5b80604052505050565b5f6104c9610406565b90506104d5828261048f565b919050565b5f67ffffffffffffffff8211156104f4576104f3610462565b5b6104fd82610452565b9050602081019050919050565b828183375f83830152505050565b5f61052a610525846104da565b6104c0565b9050828152602081018484840111156105465761054561044e565b5b61055184828561050a565b509392505050565b5f82601f83011261056d5761056c61044a565b5b813561057d848260208601610518565b91505092915050565b5f805f6060848603121561059d5761059c61040f565b5b5f6105aa86828701610436565b93505060206105bb86828701610436565b925050604084013567ffffffffffffffff8111156105dc576105db610413565b5b6105e886828701610559565b9150509250925092565b5f82825260208201905092915050565b7f496e61637469766520436f6e74726163742e00000000000000000000000000005f82015250565b5f6106366012836105f2565b915061064182610602565b602082019050919050565b5f6020820190508181035f8301526106638161062a565b9050919050565b5f73ffffffffffffffffffffffffffffffffffffffff82169050919050565b5f6106938261066a565b9050919050565b5f8160601b9050919050565b5f6106b08261069a565b9050919050565b5f6106c1826106a6565b9050919050565b6106d96106d482610689565b6106b7565b82525050565b5f819050919050565b6106f96106f482610417565b6106df565b82525050565b5f819050919050565b5f61072261071d6107188461066a565b6106ff565b61066a565b9050919050565b5f61073382610708565b9050919050565b5f61074482610729565b9050919050565b61075c6107578261073a565b6106b7565b82525050565b5f61076d82876106c8565b60148201915061077d82866106e8565b60208201915061078d82856106e8565b60208201915061079d828461074b565b60148201915081905095945050505050565b5f81905092915050565b7f19457468657265756d205369676e6564204d6573736167653a0a3332000000005f82015250565b5f6107ed601c836107af565b91506107f8826107b9565b601c82019050919050565b5f819050919050565b5f819050919050565b61082661082182610803565b61080c565b82525050565b5f610836826107e1565b91506108428284610815565b60208201915081905092915050565b61085a81610803565b82525050565b5f60ff82169050919050565b61087581610860565b82525050565b5f60808201905061088e5f830187610851565b61089b602083018661086c565b6108a86040830185610851565b6108b56060830184610851565b9594505050505056fea2646970667358221220d19228159f602caf9f090a20c209eb4a1c39e68f254ce9b1df22d000ce79404e64736f6c634300081a0033",
					"opcodes": "PUSH1 0x80 PUSH1 0x40 MSTORE PUSH0 DUP1 PUSH1 0x14 PUSH2 0x100 EXP DUP2 SLOAD DUP2 PUSH1 0xFF MUL NOT AND SWAP1 DUP4 ISZERO ISZERO MUL OR SWAP1 SSTORE POP CALLER PUSH0 DUP1 PUSH2 0x100 EXP DUP2 SLOAD DUP2 PUSH20 0xFFFFFFFFFFFFFFFFFFFFFFFFFFFFFFFFFFFFFFFF MUL NOT AND SWAP1 DUP4 PUSH20 0xFFFFFFFFFFFFFFFFFFFFFFFFFFFFFFFFFFFFFFFF AND MUL OR SWAP1 SSTORE POP PUSH2 0x8F4 DUP1 PUSH2 0x69 PUSH0 CODECOPY PUSH0 RETURN INVALID PUSH1 0x80 PUSH1 0x40 MSTORE CALLVALUE DUP1 ISZERO PUSH2 0xF JUMPI PUSH0 DUP1 REVERT JUMPDEST POP PUSH1 0x4 CALLDATASIZE LT PUSH2 0x34 JUMPI PUSH0 CALLDATALOAD PUSH1 0xE0 SHR DUP1 PUSH4 0xA90AE887 EQ PUSH2 0x38 JUMPI DUP1 PUSH4 0xFC0E74D1 EQ PUSH2 0x54 JUMPI JUMPDEST PUSH0 DUP1 REVERT JUMPDEST PUSH2 0x52 PUSH1 0x4 DUP1 CALLDATASIZE SUB DUP2 ADD SWAP1 PUSH2 0x4D SWAP2 SWAP1 PUSH2 0x586 JUMP JUMPDEST PUSH2 0x5E JUMP JUMPDEST STOP JUMPDEST PUSH2 0x5C PUSH2 0x1DD JUMP JUMPDEST STOP JUMPDEST PUSH0 PUSH1 0x14 SWAP1 SLOAD SWAP1 PUSH2 0x100 EXP SWAP1 DIV PUSH1 0xFF AND ISZERO PUSH2 0xAD JUMPI PUSH1 0x40 MLOAD PUSH32 0x8C379A000000000000000000000000000000000000000000000000000000000 DUP2 MSTORE PUSH1 0x4 ADD PUSH2 0xA4 SWAP1 PUSH2 0x64C JUMP JUMPDEST PUSH1 0x40 MLOAD DUP1 SWAP2 SUB SWAP1 REVERT JUMPDEST PUSH1 0x1 PUSH0 DUP4 DUP2 MSTORE PUSH1 0x20 ADD SWAP1 DUP2 MSTORE PUSH1 0x20 ADD PUSH0 KECCAK256 PUSH0 SWAP1 SLOAD SWAP1 PUSH2 0x100 EXP SWAP1 DIV PUSH1 0xFF AND ISZERO PUSH2 0xD4 JUMPI PUSH0 DUP1 REVERT JUMPDEST PUSH1 0x1 DUP1 PUSH0 DUP5 DUP2 MSTORE PUSH1 0x20 ADD SWAP1 DUP2 MSTORE PUSH1 0x20 ADD PUSH0 KECCAK256 PUSH0 PUSH2 0x100 EXP DUP2 SLOAD DUP2 PUSH1 0xFF MUL NOT AND SWAP1 DUP4 ISZERO ISZERO MUL OR SWAP1 SSTORE POP PUSH0 PUSH2 0x132 CALLER DUP6 DUP6 ADDRESS PUSH1 0x40 MLOAD PUSH1 0x20 ADD PUSH2 0x117 SWAP5 SWAP4 SWAP3 SWAP2 SWAP1 PUSH2 0x762 JUMP JUMPDEST PUSH1 0x40 MLOAD PUSH1 0x20 DUP2 DUP4 SUB SUB DUP2 MSTORE SWAP1 PUSH1 0x40 MSTORE DUP1 MLOAD SWAP1 PUSH1 0x20 ADD KECCAK256 PUSH2 0x2D0 JUMP JUMPDEST SWAP1 POP PUSH0 DUP1 SLOAD SWAP1 PUSH2 0x100 EXP SWAP1 DIV PUSH20 0xFFFFFFFFFFFFFFFFFFFFFFFFFFFFFFFFFFFFFFFF AND PUSH20 0xFFFFFFFFFFFFFFFFFFFFFFFFFFFFFFFFFFFFFFFF AND PUSH2 0x174 DUP3 DUP5 PUSH2 0x2FF JUMP JUMPDEST PUSH20 0xFFFFFFFFFFFFFFFFFFFFFFFFFFFFFFFFFFFFFFFF AND EQ PUSH2 0x193 JUMPI PUSH0 DUP1 REVERT JUMPDEST CALLER PUSH20 0xFFFFFFFFFFFFFFFFFFFFFFFFFFFFFFFFFFFFFFFF AND PUSH2 0x8FC DUP6 SWAP1 DUP2 ISZERO MUL SWAP1 PUSH1 0x40 MLOAD PUSH0 PUSH1 0x40 MLOAD DUP1 DUP4 SUB DUP2 DUP6 DUP9 DUP9 CALL SWAP4 POP POP POP POP ISZERO DUP1 ISZERO PUSH2 0x1D6 JUMPI RETURNDATASIZE PUSH0 DUP1 RETURNDATACOPY RETURNDATASIZE PUSH0 REVERT JUMPDEST POP POP POP POP POP JUMP JUMPDEST PUSH0 PUSH1 0x14 SWAP1 SLOAD SWAP1 PUSH2 0x100 EXP SWAP1 DIV PUSH1 0xFF AND ISZERO PUSH2 0x22C JUMPI PUSH1 0x40 MLOAD PUSH32 0x8C379A000000000000000000000000000000000000000000000000000000000 DUP2 MSTORE PUSH1 0x4 ADD PUSH2 0x223 SWAP1 PUSH2 0x64C JUMP JUMPDEST PUSH1 0x40 MLOAD DUP1 SWAP2 SUB SWAP1 REVERT JUMPDEST PUSH0 DUP1 SLOAD SWAP1 PUSH2 0x100 EXP SWAP1 DIV PUSH20 0xFFFFFFFFFFFFFFFFFFFFFFFFFFFFFFFFFFFFFFFF AND PUSH20 0xFFFFFFFFFFFFFFFFFFFFFFFFFFFFFFFFFFFFFFFF AND CALLER PUSH20 0xFFFFFFFFFFFFFFFFFFFFFFFFFFFFFFFFFFFFFFFF AND EQ PUSH2 0x282 JUMPI PUSH0 DUP1 REVERT JUMPDEST PUSH2 0x28A PUSH2 0x369 JUMP JUMPDEST CALLER PUSH20 0xFFFFFFFFFFFFFFFFFFFFFFFFFFFFFFFFFFFFFFFF AND PUSH2 0x8FC SELFBALANCE SWAP1 DUP2 ISZERO MUL SWAP1 PUSH1 0x40 MLOAD PUSH0 PUSH1 0x40 MLOAD DUP1 DUP4 SUB DUP2 DUP6 DUP9 DUP9 CALL SWAP4 POP POP POP POP ISZERO DUP1 ISZERO PUSH2 0x2CD JUMPI RETURNDATASIZE PUSH0 DUP1 RETURNDATACOPY RETURNDATASIZE PUSH0 REVERT JUMPDEST POP JUMP JUMPDEST PUSH0 DUP2 PUSH1 0x40 MLOAD PUSH1 0x20 ADD PUSH2 0x2E2 SWAP2 SWAP1 PUSH2 0x82C JUMP JUMPDEST PUSH1 0x40 MLOAD PUSH1 0x20 DUP2 DUP4 SUB SUB DUP2 MSTORE SWAP1 PUSH1 0x40 MSTORE DUP1 MLOAD SWAP1 PUSH1 0x20 ADD KECCAK256 SWAP1 POP SWAP2 SWAP1 POP JUMP JUMPDEST PUSH0 DUP1 PUSH0 DUP1 PUSH2 0x30C DUP6 PUSH2 0x3D8 JUMP JUMPDEST SWAP3 POP SWAP3 POP SWAP3 POP PUSH1 0x1 DUP7 DUP5 DUP5 DUP5 PUSH1 0x40 MLOAD PUSH0 DUP2 MSTORE PUSH1 0x20 ADD PUSH1 0x40 MSTORE PUSH1 0x40 MLOAD PUSH2 0x334 SWAP5 SWAP4 SWAP3 SWAP2 SWAP1 PUSH2 0x87B JUMP JUMPDEST PUSH1 0x20 PUSH1 0x40 MLOAD PUSH1 0x20 DUP2 SUB SWAP1 DUP1 DUP5 SUB SWAP1 DUP6 GAS STATICCALL ISZERO DUP1 ISZERO PUSH2 0x354 JUMPI RETURNDATASIZE PUSH0 DUP1 RETURNDATACOPY RETURNDATASIZE PUSH0 REVERT JUMPDEST POP POP POP PUSH1 0x20 PUSH1 0x40 MLOAD SUB MLOAD SWAP4 POP POP POP POP SWAP3 SWAP2 POP POP JUMP JUMPDEST PUSH0 DUP1 SLOAD SWAP1 PUSH2 0x100 EXP SWAP1 DIV PUSH20 0xFFFFFFFFFFFFFFFFFFFFFFFFFFFFFFFFFFFFFFFF AND PUSH20 0xFFFFFFFFFFFFFFFFFFFFFFFFFFFFFFFFFFFFFFFF AND CALLER PUSH20 0xFFFFFFFFFFFFFFFFFFFFFFFFFFFFFFFFFFFFFFFF AND SUB PUSH2 0x3D6 JUMPI PUSH1 0x1 PUSH0 PUSH1 0x14 PUSH2 0x100 EXP DUP2 SLOAD DUP2 PUSH1 0xFF MUL NOT AND SWAP1 DUP4 ISZERO ISZERO MUL OR SWAP1 SSTORE POP JUMPDEST JUMP JUMPDEST PUSH0 DUP1 PUSH0 PUSH1 0x41 DUP5 MLOAD EQ PUSH2 0x3E8 JUMPI PUSH0 DUP1 REVERT JUMPDEST PUSH1 0x20 DUP5 ADD MLOAD SWAP2 POP PUSH1 0x40 DUP5 ADD MLOAD SWAP1 POP PUSH1 0x60 DUP5 ADD MLOAD PUSH0 BYTE SWAP3 POP SWAP2 SWAP4 SWAP1 SWAP3 POP JUMP JUMPDEST PUSH0 PUSH1 0x40 MLOAD SWAP1 POP SWAP1 JUMP JUMPDEST PUSH0 DUP1 REVERT JUMPDEST PUSH0 DUP1 REVERT JUMPDEST PUSH0 DUP2 SWAP1 POP SWAP2 SWAP1 POP JUMP JUMPDEST PUSH2 0x429 DUP2 PUSH2 0x417 JUMP JUMPDEST DUP2 EQ PUSH2 0x433 JUMPI PUSH0 DUP1 REVERT JUMPDEST POP JUMP JUMPDEST PUSH0 DUP2 CALLDATALOAD SWAP1 POP PUSH2 0x444 DUP2 PUSH2 0x420 JUMP JUMPDEST SWAP3 SWAP2 POP POP JUMP JUMPDEST PUSH0 DUP1 REVERT JUMPDEST PUSH0 DUP1 REVERT JUMPDEST PUSH0 PUSH1 0x1F NOT PUSH1 0x1F DUP4 ADD AND SWAP1 POP SWAP2 SWAP1 POP JUMP JUMPDEST PUSH32 0x4E487B7100000000000000000000000000000000000000000000000000000000 PUSH0 MSTORE PUSH1 0x41 PUSH1 0x4 MSTORE PUSH1 0x24 PUSH0 REVERT JUMPDEST PUSH2 0x498 DUP3 PUSH2 0x452 JUMP JUMPDEST DUP2 ADD DUP2 DUP2 LT PUSH8 0xFFFFFFFFFFFFFFFF DUP3 GT OR ISZERO PUSH2 0x4B7 JUMPI PUSH2 0x4B6 PUSH2 0x462 JUMP JUMPDEST JUMPDEST DUP1 PUSH1 0x40 MSTORE POP POP POP JUMP JUMPDEST PUSH0 PUSH2 0x4C9 PUSH2 0x406 JUMP JUMPDEST SWAP1 POP PUSH2 0x4D5 DUP3 DUP3 PUSH2 0x48F JUMP JUMPDEST SWAP2 SWAP1 POP JUMP JUMPDEST PUSH0 PUSH8 0xFFFFFFFFFFFFFFFF DUP3 GT ISZERO PUSH2 0x4F4 JUMPI PUSH2 0x4F3 PUSH2 0x462 JUMP JUMPDEST JUMPDEST PUSH2 0x4FD DUP3 PUSH2 0x452 JUMP JUMPDEST SWAP1 POP PUSH1 0x20 DUP2 ADD SWAP1 POP SWAP2 SWAP1 POP JUMP JUMPDEST DUP3 DUP2 DUP4 CALLDATACOPY PUSH0 DUP4 DUP4 ADD MSTORE POP POP POP JUMP JUMPDEST PUSH0 PUSH2 0x52A PUSH2 0x525 DUP5 PUSH2 0x4DA JUMP JUMPDEST PUSH2 0x4C0 JUMP JUMPDEST SWAP1 POP DUP3 DUP2 MSTORE PUSH1 0x20 DUP2 ADD DUP5 DUP5 DUP5 ADD GT ISZERO PUSH2 0x546 JUMPI PUSH2 0x545 PUSH2 0x44E JUMP JUMPDEST JUMPDEST PUSH2 0x551 DUP5 DUP3 DUP6 PUSH2 0x50A JUMP JUMPDEST POP SWAP4 SWAP3 POP POP POP JUMP JUMPDEST PUSH0 DUP3 PUSH1 0x1F DUP4 ADD SLT PUSH2 0x56D JUMPI PUSH2 0x56C PUSH2 0x44A JUMP JUMPDEST JUMPDEST DUP2 CALLDATALOAD PUSH2 0x57D DUP5 DUP3 PUSH1 0x20 DUP7 ADD PUSH2 0x518 JUMP JUMPDEST SWAP2 POP POP SWAP3 SWAP2 POP POP JUMP JUMPDEST PUSH0 DUP1 PUSH0 PUSH1 0x60 DUP5 DUP7 SUB SLT ISZERO PUSH2 0x59D JUMPI PUSH2 0x59C PUSH2 0x40F JUMP JUMPDEST JUMPDEST PUSH0 PUSH2 0x5AA DUP7 DUP3 DUP8 ADD PUSH2 0x436 JUMP JUMPDEST SWAP4 POP POP PUSH1 0x20 PUSH2 0x5BB DUP7 DUP3 DUP8 ADD PUSH2 0x436 JUMP JUMPDEST SWAP3 POP POP PUSH1 0x40 DUP5 ADD CALLDATALOAD PUSH8 0xFFFFFFFFFFFFFFFF DUP2 GT ISZERO PUSH2 0x5DC JUMPI PUSH2 0x5DB PUSH2 0x413 JUMP JUMPDEST JUMPDEST PUSH2 0x5E8 DUP7 DUP3 DUP8 ADD PUSH2 0x559 JUMP JUMPDEST SWAP2 POP POP SWAP3 POP SWAP3 POP SWAP3 JUMP JUMPDEST PUSH0 DUP3 DUP3 MSTORE PUSH1 0x20 DUP3 ADD SWAP1 POP SWAP3 SWAP2 POP POP JUMP JUMPDEST PUSH32 0x496E61637469766520436F6E74726163742E0000000000000000000000000000 PUSH0 DUP3 ADD MSTORE POP JUMP JUMPDEST PUSH0 PUSH2 0x636 PUSH1 0x12 DUP4 PUSH2 0x5F2 JUMP JUMPDEST SWAP2 POP PUSH2 0x641 DUP3 PUSH2 0x602 JUMP JUMPDEST PUSH1 0x20 DUP3 ADD SWAP1 POP SWAP2 SWAP1 POP JUMP JUMPDEST PUSH0 PUSH1 0x20 DUP3 ADD SWAP1 POP DUP2 DUP2 SUB PUSH0 DUP4 ADD MSTORE PUSH2 0x663 DUP2 PUSH2 0x62A JUMP JUMPDEST SWAP1 POP SWAP2 SWAP1 POP JUMP JUMPDEST PUSH0 PUSH20 0xFFFFFFFFFFFFFFFFFFFFFFFFFFFFFFFFFFFFFFFF DUP3 AND SWAP1 POP SWAP2 SWAP1 POP JUMP JUMPDEST PUSH0 PUSH2 0x693 DUP3 PUSH2 0x66A JUMP JUMPDEST SWAP1 POP SWAP2 SWAP1 POP JUMP JUMPDEST PUSH0 DUP2 PUSH1 0x60 SHL SWAP1 POP SWAP2 SWAP1 POP JUMP JUMPDEST PUSH0 PUSH2 0x6B0 DUP3 PUSH2 0x69A JUMP JUMPDEST SWAP1 POP SWAP2 SWAP1 POP JUMP JUMPDEST PUSH0 PUSH2 0x6C1 DUP3 PUSH2 0x6A6 JUMP JUMPDEST SWAP1 POP SWAP2 SWAP1 POP JUMP JUMPDEST PUSH2 0x6D9 PUSH2 0x6D4 DUP3 PUSH2 0x689 JUMP JUMPDEST PUSH2 0x6B7 JUMP JUMPDEST DUP3 MSTORE POP POP JUMP JUMPDEST PUSH0 DUP2 SWAP1 POP SWAP2 SWAP1 POP JUMP JUMPDEST PUSH2 0x6F9 PUSH2 0x6F4 DUP3 PUSH2 0x417 JUMP JUMPDEST PUSH2 0x6DF JUMP JUMPDEST DUP3 MSTORE POP POP JUMP JUMPDEST PUSH0 DUP2 SWAP1 POP SWAP2 SWAP1 POP JUMP JUMPDEST PUSH0 PUSH2 0x722 PUSH2 0x71D PUSH2 0x718 DUP5 PUSH2 0x66A JUMP JUMPDEST PUSH2 0x6FF JUMP JUMPDEST PUSH2 0x66A JUMP JUMPDEST SWAP1 POP SWAP2 SWAP1 POP JUMP JUMPDEST PUSH0 PUSH2 0x733 DUP3 PUSH2 0x708 JUMP JUMPDEST SWAP1 POP SWAP2 SWAP1 POP JUMP JUMPDEST PUSH0 PUSH2 0x744 DUP3 PUSH2 0x729 JUMP JUMPDEST SWAP1 POP SWAP2 SWAP1 POP JUMP JUMPDEST PUSH2 0x75C PUSH2 0x757 DUP3 PUSH2 0x73A JUMP JUMPDEST PUSH2 0x6B7 JUMP JUMPDEST DUP3 MSTORE POP POP JUMP JUMPDEST PUSH0 PUSH2 0x76D DUP3 DUP8 PUSH2 0x6C8 JUMP JUMPDEST PUSH1 0x14 DUP3 ADD SWAP2 POP PUSH2 0x77D DUP3 DUP7 PUSH2 0x6E8 JUMP JUMPDEST PUSH1 0x20 DUP3 ADD SWAP2 POP PUSH2 0x78D DUP3 DUP6 PUSH2 0x6E8 JUMP JUMPDEST PUSH1 0x20 DUP3 ADD SWAP2 POP PUSH2 0x79D DUP3 DUP5 PUSH2 0x74B JUMP JUMPDEST PUSH1 0x14 DUP3 ADD SWAP2 POP DUP2 SWAP1 POP SWAP6 SWAP5 POP POP POP POP POP JUMP JUMPDEST PUSH0 DUP2 SWAP1 POP SWAP3 SWAP2 POP POP JUMP JUMPDEST PUSH32 0x19457468657265756D205369676E6564204D6573736167653A0A333200000000 PUSH0 DUP3 ADD MSTORE POP JUMP JUMPDEST PUSH0 PUSH2 0x7ED PUSH1 0x1C DUP4 PUSH2 0x7AF JUMP JUMPDEST SWAP2 POP PUSH2 0x7F8 DUP3 PUSH2 0x7B9 JUMP JUMPDEST PUSH1 0x1C DUP3 ADD SWAP1 POP SWAP2 SWAP1 POP JUMP JUMPDEST PUSH0 DUP2 SWAP1 POP SWAP2 SWAP1 POP JUMP JUMPDEST PUSH0 DUP2 SWAP1 POP SWAP2 SWAP1 POP JUMP JUMPDEST PUSH2 0x826 PUSH2 0x821 DUP3 PUSH2 0x803 JUMP JUMPDEST PUSH2 0x80C JUMP JUMPDEST DUP3 MSTORE POP POP JUMP JUMPDEST PUSH0 PUSH2 0x836 DUP3 PUSH2 0x7E1 JUMP JUMPDEST SWAP2 POP PUSH2 0x842 DUP3 DUP5 PUSH2 0x815 JUMP JUMPDEST PUSH1 0x20 DUP3 ADD SWAP2 POP DUP2 SWAP1 POP SWAP3 SWAP2 POP POP JUMP JUMPDEST PUSH2 0x85A DUP2 PUSH2 0x803 JUMP JUMPDEST DUP3 MSTORE POP POP JUMP JUMPDEST PUSH0 PUSH1 0xFF DUP3 AND SWAP1 POP SWAP2 SWAP1 POP JUMP JUMPDEST PUSH2 0x875 DUP2 PUSH2 0x860 JUMP JUMPDEST DUP3 MSTORE POP POP JUMP JUMPDEST PUSH0 PUSH1 0x80 DUP3 ADD SWAP1 POP PUSH2 0x88E PUSH0 DUP4 ADD DUP8 PUSH2 0x851 JUMP JUMPDEST PUSH2 0x89B PUSH1 0x20 DUP4 ADD DUP7 PUSH2 0x86C JUMP JUMPDEST PUSH2 0x8A8 PUSH1 0x40 DUP4 ADD DUP6 PUSH2 0x851 JUMP JUMPDEST PUSH2 0x8B5 PUSH1 0x60 DUP4 ADD DUP5 PUSH2 0x851 JUMP JUMPDEST SWAP6 SWAP5 POP POP POP POP POP JUMP INVALID LOG2 PUSH5 0x6970667358 0x22 SLT KECCAK256 0xD1 SWAP3 0x28 ISZERO SWAP16 PUSH1 0x2C 0xAF SWAP16 MULMOD EXP KECCAK256 0xC2 MULMOD 0xEB BLOBBASEFEE SHR CODECOPY 0xE6 DUP16 0x25 0x4C 0xE9 0xB1 0xDF 0x22 0xD0 STOP 0xCE PUSH26 0x404E64736F6C634300081A003300000000000000000000000000 "
				},
				"gasEstimates": {
					"creation": {
						"codeDepositCost": "458400",
						"executionCost": "49048",
						"totalCost": "507448"
					},
					"external": {
						"claimPayment(uint256,uint256,bytes)": "infinite",
						"shutdown()": "infinite"
					},
					"internal": {
						"prefixed(bytes32)": "infinite",
						"recoverSigner(bytes32,bytes memory)": "infinite",
						"splitSignature(bytes memory)": "infinite"
					}
				},
				"methodIdentifiers": {
					"claimPayment(uint256,uint256,bytes)": "a90ae887",
					"shutdown()": "fc0e74d1"
				}
			},
			"storageLayout": {
				"storage": [
					{
						"astId": 3,
						"contract": "Solidity Contracts/fullcontract.sol:ReceiverPays",
						"label": "owner",
						"offset": 0,
						"slot": "0",
						"type": "t_address_payable"
					},
					{
						"astId": 21,
						"contract": "Solidity Contracts/fullcontract.sol:ReceiverPays",
						"label": "_frozen",
						"offset": 20,
						"slot": "0",
						"type": "t_bool"
					},
					{
						"astId": 51,
						"contract": "Solidity Contracts/fullcontract.sol:ReceiverPays",
						"label": "usedNonces",
						"offset": 0,
						"slot": "1",
						"type": "t_mapping(t_uint256,t_bool)"
					}
				],
				"types": {
					"t_address_payable": {
						"encoding": "inplace",
						"label": "address payable",
						"numberOfBytes": "20"
					},
					"t_bool": {
						"encoding": "inplace",
						"label": "bool",
						"numberOfBytes": "1"
					},
					"t_mapping(t_uint256,t_bool)": {
						"encoding": "mapping",
						"key": "t_uint256",
						"label": "mapping(uint256 => bool)",
						"numberOfBytes": "32",
						"value": "t_bool"
					},
					"t_uint256": {
						"encoding": "inplace",
						"label": "uint256",
						"numberOfBytes": "32"
					}
				}
			},
			"userdoc": {
				"kind": "user",
				"methods": {
					"shutdown()": {
						"notice": "freeze the contract and reclaim the leftover funds."
					}
				},
				"version": 1
			}
		}
	}
}