{
	"data": {
		"bytecode": {
			"linkReferences": {},
			"object": "6080604052348015600e575f80fd5b5060de80601a5f395ff3fe6080604052348015600e575f80fd5b50600436106030575f3560e01c8063645e9edf1460345780639848d8e614603c575b5f80fd5b603a6044565b005b60426067565b005b5f80600190505f42905060568282608a565b925060608183608a565b9250505050565b5f600190505f4290505f8290505f8290505f608185856099565b90505050505050565b5f818360401b17905092915050565b5f818360401b1790509291505056fea2646970667358221220ec91a0e94410d5ca3e37daa257de552ab45e64e0d4ea01c1a227e21c73ac421d64736f6c634300081a0033",
			"opcodes": "PUSH1 0x80 PUSH1 0x40 MSTORE CALLVALUE DUP1 ISZERO PUSH1 0xE JUMPI PUSH0 DUP1 REVERT JUMPDEST POP PUSH1 0xDE DUP1 PUSH1 0x1A PUSH0 CODECOPY PUSH0 RETURN INVALID PUSH1 0x80 PUSH1 0x40 MSTORE CALLVALUE DUP1 ISZERO PUSH1 0xE JUMPI PUSH0 DUP1 REVERT JUMPDEST POP PUSH1 0x4 CALLDATASIZE LT PUSH1 0x30 JUMPI PUSH0 CALLDATALOAD PUSH1 0xE0 SHR DUP1 PUSH4 0x645E9EDF EQ PUSH1 0x34 JUMPI DUP1 PUSH4 0x9848D8E6 EQ PUSH1 0x3C JUMPI JUMPDEST PUSH0 DUP1 REVERT JUMPDEST PUSH1 0x3A PUSH1 0x44 JUMP JUMPDEST STOP JUMPDEST PUSH1 0x42 PUSH1 0x67 JUMP JUMPDEST STOP JUMPDEST PUSH0 DUP1 PUSH1 0x1 SWAP1 POP PUSH0 TIMESTAMP SWAP1 POP PUSH1 0x56 DUP3 DUP3 PUSH1 0x8A JUMP JUMPDEST SWAP3 POP PUSH1 0x60 DUP2 DUP4 PUSH1 0x8A JUMP JUMPDEST SWAP3 POP POP POP POP JUMP JUMPDEST PUSH0 PUSH1 0x1 SWAP1 POP PUSH0 TIMESTAMP SWAP1 POP PUSH0 DUP3 SWAP1 POP PUSH0 DUP3 SWAP1 POP PUSH0 PUSH1 0x81 DUP6 DUP6 PUSH1 0x99 JUMP JUMPDEST SWAP1 POP POP POP POP POP POP JUMP JUMPDEST PUSH0 DUP2 DUP4 PUSH1 0x40 SHL OR SWAP1 POP SWAP3 SWAP2 POP POP JUMP JUMPDEST PUSH0 DUP2 DUP4 PUSH1 0x40 SHL OR SWAP1 POP SWAP3 SWAP2 POP POP JUMP INVALID LOG2 PUSH5 0x6970667358 0x22 SLT KECCAK256 0xEC SWAP2 LOG0 0xE9 PREVRANDAO LT 0xD5 0xCA RETURNDATACOPY CALLDATACOPY 0xDA LOG2 JUMPI 0xDE SSTORE 0x2A 0xB4 MCOPY PUSH5 0xE0D4EA01C1 LOG2 0x27 0xE2 SHR PUSH20 0xAC421D64736F6C634300081A0033000000000000 "
		},
		"gasEstimates": {
			"creation": {
				"codeDepositCost": "44400",
				"executionCost": "91",
				"totalCost": "44491"
			},
			"external": {
				"example_no_uvdt()": "infinite",
				"example_uvdt()": "261"
			}
		},
		"methodIdentifiers": {
			"example_no_uvdt()": "645e9edf",
			"example_uvdt()": "9848d8e6"
		}
	},
	"abi": [
		{
			"inputs": [],
			"name": "example_no_uvdt",
			"outputs": [],
			"stateMutability": "nonpayable",
			"type": "function"
		},
		{
			"inputs": [],
			"name": "example_uvdt",
			"outputs": [],
			"stateMutability": "nonpayable",
			"type": "function"
		}
	]
}